{
  "address": "0x912b85669035575d8f757F0Af3BbD1d50EDf8f50",
  "abi": [
    {
      "inputs": [],
      "name": "LAB",
      "outputs": [
        {
          "internalType": "contract GBCLab",
          "name": "",
          "type": "address"
        }
      ],
      "stateMutability": "view",
      "type": "function"
    },
    {
      "inputs": [],
      "name": "POLICE",
      "outputs": [
        {
          "internalType": "contract Authority",
          "name": "",
          "type": "address"
        }
      ],
      "stateMutability": "view",
      "type": "function"
    },
    {
      "inputs": [],
      "name": "TREASURY",
      "outputs": [
        {
          "internalType": "address",
          "name": "",
          "type": "address"
        }
      ],
      "stateMutability": "view",
      "type": "function"
    },
    {
      "inputs": [],
      "name": "currency",
      "outputs": [
        {
          "internalType": "contract ERC20",
          "name": "",
          "type": "address"
        }
      ],
      "stateMutability": "pure",
      "type": "function"
    },
    {
      "inputs": [],
      "name": "end",
      "outputs": [
        {
          "internalType": "uint256",
          "name": "",
          "type": "uint256"
        }
      ],
      "stateMutability": "pure",
      "type": "function"
    },
    {
      "inputs": [
        {
          "internalType": "uint256",
          "name": "amount",
          "type": "uint256"
        }
      ],
      "name": "mint",
      "outputs": [],
      "stateMutability": "nonpayable",
      "type": "function"
    },
    {
      "inputs": [
        {
          "internalType": "address",
          "name": "to",
          "type": "address"
        },
        {
          "internalType": "uint256",
          "name": "amount",
          "type": "uint256"
        }
      ],
      "name": "mintFor",
      "outputs": [],
      "stateMutability": "nonpayable",
      "type": "function"
    },
    {
      "inputs": [
        {
          "internalType": "address",
          "name": "",
          "type": "address"
        }
      ],
      "name": "minted",
      "outputs": [
        {
          "internalType": "uint256",
          "name": "",
          "type": "uint256"
        }
      ],
      "stateMutability": "view",
      "type": "function"
    },
    {
      "inputs": [],
      "name": "price",
      "outputs": [
        {
          "internalType": "uint256",
          "name": "",
          "type": "uint256"
        }
      ],
      "stateMutability": "pure",
      "type": "function"
    },
    {
      "inputs": [],
      "name": "start",
      "outputs": [
        {
          "internalType": "uint256",
          "name": "",
          "type": "uint256"
        }
      ],
      "stateMutability": "pure",
      "type": "function"
    },
    {
      "inputs": [],
      "name": "supply",
      "outputs": [
        {
          "internalType": "uint256",
          "name": "",
          "type": "uint256"
        }
      ],
      "stateMutability": "pure",
      "type": "function"
    },
    {
      "inputs": [],
      "name": "tokenId",
      "outputs": [
        {
          "internalType": "uint256",
          "name": "",
          "type": "uint256"
        }
      ],
      "stateMutability": "pure",
      "type": "function"
    },
    {
      "inputs": [],
      "name": "totalMinted",
      "outputs": [
        {
          "internalType": "uint256",
          "name": "",
          "type": "uint256"
        }
      ],
      "stateMutability": "view",
      "type": "function"
    },
    {
      "inputs": [],
      "name": "transaction",
      "outputs": [
        {
          "internalType": "uint256",
          "name": "",
          "type": "uint256"
        }
      ],
      "stateMutability": "pure",
      "type": "function"
    },
    {
      "inputs": [],
      "name": "wallet",
      "outputs": [
        {
          "internalType": "uint256",
          "name": "",
          "type": "uint256"
        }
      ],
      "stateMutability": "pure",
      "type": "function"
    }
  ],
  "transactionHash": "0xa59c3fc28accb0155ff07fab305d7284e32b2fdadf11d9c0587fffc21609c325",
  "args": [],
  "numDeployments": 1,
  "solcInputHash": "d9b63976ce6dd21bf7032ddac5023b9f",
  "bytecode": "0x608060405234801561001057600080fd5b506109f2806100206000396000f3fe608060405234801561001057600080fd5b50600436106100f55760003560e01c8063a035b1fe11610097578063c99de57e11610066578063c99de57e146101e9578063da1919b3146101f1578063e5a6b10f14610204578063efbe1c1c1461020c57600080fd5b8063a035b1fe146101bb578063a0712d68146101c3578063a2309ff8146101d8578063be9a6555146101e157600080fd5b80632d2c5565116100d35780632d2c55651461013d578063521eb2731461017d5780639ca95a1e146101855780639f2b03b6146101a057600080fd5b8063047fc9aa146100fa57806317d70f7c146101155780631e7269c51461011d575b600080fd5b610102610214565b6040519081526020015b60405180910390f35b610102610225565b61010261012b3660046108b1565b60006020819052908152604090205481565b61015873de2dbb7f1c893cc5e2f51cbfd2a73c8a016183a081565b60405173ffffffffffffffffffffffffffffffffffffffff909116815260200161010c565b610102610231565b61015873575f40e8422efa696108dafd12cd8d636698241681565b61015873f4f935f4272e6fd9c779cf0036589a63b48d77a781565b61010261023d565b6101d66101d13660046108d3565b610249565b005b61010260015481565b610102610256565b610102610262565b6101d66101ff3660046108ec565b61026e565b610158610398565b6101026103a4565b600061022060206103ac565b905090565b600061022060c06103ac565b600061022060406103ac565b600061022060006103ac565b61025333826103ce565b50565b600061022060806103ac565b600061022060606103ac565b6040517fb70096130000000000000000000000000000000000000000000000000000000081523360048201523060248201526000357fffffffff0000000000000000000000000000000000000000000000000000000016604482015273575f40e8422efa696108dafd12cd8d63669824169063b70096139060640160206040518083038186803b15801561030157600080fd5b505afa158015610315573d6000803e3d6000fd5b505050506040513d601f19601f820116820180604052508101906103399190610916565b61038a5760405162461bcd60e51b815260206004820152600c60248201527f554e415554484f52495a4544000000000000000000000000000000000000000060448201526064015b60405180910390fd5b61039482826103ce565b5050565b600061022060e0610757565b600061022060a05b6000806103c3600119368181013560f01c90030190565b929092013592915050565b6103d6610262565b8111156104255760405162461bcd60e51b815260206004820152600f60248201527f4d41585f5452414e53414354494f4e00000000000000000000000000000000006044820152606401610381565b6000816001546104359190610967565b905061043f610214565b81111561048e5760405162461bcd60e51b815260206004820152600a60248201527f4d41585f535550504c59000000000000000000000000000000000000000000006044820152606401610381565b73ffffffffffffffffffffffffffffffffffffffff83166000908152602081905260408120546104bf908490610967565b90506104c9610231565b8111156105185760405162461bcd60e51b815260206004820152600a60248201527f4d41585f57414c4c4554000000000000000000000000000000000000000000006044820152606401610381565b610520610256565b42101561056f5760405162461bcd60e51b815260206004820152600b60248201527f4e4f545f535441525445440000000000000000000000000000000000000000006044820152606401610381565b6105776103a4565b42106105c55760405162461bcd60e51b815260206004820152600860248201527f46494e49534845440000000000000000000000000000000000000000000000006044820152606401610381565b600182905573ffffffffffffffffffffffffffffffffffffffff841660009081526020819052604081208290556105fa610398565b905073ffffffffffffffffffffffffffffffffffffffff811661064b5761064673de2dbb7f1c893cc5e2f51cbfd2a73c8a016183a061063761023d565b610641908761097f565b61077c565b610695565b6106953373de2dbb7f1c893cc5e2f51cbfd2a73c8a016183a061066c61023d565b610676908861097f565b73ffffffffffffffffffffffffffffffffffffffff85169291906107dc565b73f4f935f4272e6fd9c779cf0036589a63b48d77a763731133e9866106b8610225565b6040517fffffffff0000000000000000000000000000000000000000000000000000000060e085901b16815273ffffffffffffffffffffffffffffffffffffffff9092166004830152602482015260448101879052608060648201526000608482015260a401600060405180830381600087803b15801561073857600080fd5b505af115801561074c573d6000803e3d6000fd5b505050505050505050565b60008061076e600119368181013560f01c90030190565b929092013560601c92915050565b600080600080600085875af19050806107d75760405162461bcd60e51b815260206004820152601360248201527f4554485f5452414e534645525f4641494c4544000000000000000000000000006044820152606401610381565b505050565b60006040517f23b872dd0000000000000000000000000000000000000000000000000000000081528460048201528360248201528260448201526020600060648360008a5af13d15601f3d11600160005114161716915050806108815760405162461bcd60e51b815260206004820152601460248201527f5452414e534645525f46524f4d5f4641494c45440000000000000000000000006044820152606401610381565b5050505050565b803573ffffffffffffffffffffffffffffffffffffffff811681146108ac57600080fd5b919050565b6000602082840312156108c357600080fd5b6108cc82610888565b9392505050565b6000602082840312156108e557600080fd5b5035919050565b600080604083850312156108ff57600080fd5b61090883610888565b946020939093013593505050565b60006020828403121561092857600080fd5b815180151581146108cc57600080fd5b7f4e487b7100000000000000000000000000000000000000000000000000000000600052601160045260246000fd5b6000821982111561097a5761097a610938565b500190565b6000817fffffffffffffffffffffffffffffffffffffffffffffffffffffffffffffffff04831182151516156109b7576109b7610938565b50029056fea26469706673582212206cabcabe86b9855d4d9ef47dc8a8ecbc8ffafa2935b34635fcf71dbdbece434664736f6c63430008090033",
  "devdoc": {
    "kind": "dev",
    "methods": {},
    "version": 1
  },
  "userdoc": {
    "kind": "user",
    "methods": {},
    "version": 1
  },
  "storageLayout": {
    "storage": [
      {
        "astId": 7629,
        "contract": "src/lab/sales/implementations/Classic.sol:ClassicSale",
        "label": "minted",
        "offset": 0,
        "slot": "0",
        "type": "t_mapping(t_address,t_uint256)"
      },
      {
        "astId": 7631,
        "contract": "src/lab/sales/implementations/Classic.sol:ClassicSale",
        "label": "totalMinted",
        "offset": 0,
        "slot": "1",
        "type": "t_uint256"
      }
    ],
    "types": {
      "t_address": {
        "encoding": "inplace",
        "label": "address",
        "numberOfBytes": "20"
      },
      "t_mapping(t_address,t_uint256)": {
        "encoding": "mapping",
        "key": "t_address",
        "label": "mapping(address => uint256)",
        "numberOfBytes": "32",
        "value": "t_uint256"
      },
      "t_uint256": {
        "encoding": "inplace",
        "label": "uint256",
        "numberOfBytes": "32"
      }
    }
  }
}