{
  "address": "0xad5b6aF8b9e13a4B8a0aA1bd1517c5f9e6BfD6E5",
  "abi": [
    {
      "inputs": [
        {
          "internalType": "contract IERC721",
          "name": "_gbc",
          "type": "address"
        },
        {
          "internalType": "contract GBCLab",
          "name": "_lab",
          "type": "address"
        }
      ],
      "stateMutability": "nonpayable",
      "type": "constructor"
    },
    {
      "inputs": [],
      "name": "AlreadyDeposited",
      "type": "error"
    },
    {
      "inputs": [],
      "name": "MaxOwnableReached",
      "type": "error"
    },
    {
      "inputs": [],
      "name": "NotDeposited",
      "type": "error"
    },
    {
      "inputs": [],
      "name": "NotOwner",
      "type": "error"
    },
    {
      "inputs": [],
      "name": "PluginNotApproved",
      "type": "error"
    },
    {
      "anonymous": false,
      "inputs": [
        {
          "indexed": true,
          "internalType": "uint256",
          "name": "token",
          "type": "uint256"
        },
        {
          "indexed": false,
          "internalType": "uint256[]",
          "name": "deposits",
          "type": "uint256[]"
        },
        {
          "indexed": false,
          "internalType": "uint256[]",
          "name": "whithdraws",
          "type": "uint256[]"
        }
      ],
      "name": "Set",
      "type": "event"
    },
    {
      "inputs": [],
      "name": "GBC",
      "outputs": [
        {
          "internalType": "contract IERC721",
          "name": "",
          "type": "address"
        }
      ],
      "stateMutability": "view",
      "type": "function"
    },
    {
      "inputs": [],
      "name": "LAB",
      "outputs": [
        {
          "internalType": "contract GBCLab",
          "name": "",
          "type": "address"
        }
      ],
      "stateMutability": "view",
      "type": "function"
    },
    {
      "inputs": [
        {
          "internalType": "address",
          "name": "plugin",
          "type": "address"
        },
        {
          "internalType": "bool",
          "name": "approved",
          "type": "bool"
        }
      ],
      "name": "approve",
      "outputs": [],
      "stateMutability": "nonpayable",
      "type": "function"
    },
    {
      "inputs": [
        {
          "internalType": "uint256",
          "name": "token",
          "type": "uint256"
        },
        {
          "internalType": "uint256",
          "name": "start",
          "type": "uint256"
        },
        {
          "internalType": "uint256",
          "name": "size",
          "type": "uint256"
        }
      ],
      "name": "get",
      "outputs": [
        {
          "internalType": "uint256[]",
          "name": "",
          "type": "uint256[]"
        }
      ],
      "stateMutability": "view",
      "type": "function"
    },
    {
      "inputs": [
        {
          "internalType": "uint256",
          "name": "token",
          "type": "uint256"
        },
        {
          "internalType": "uint256",
          "name": "item",
          "type": "uint256"
        }
      ],
      "name": "isWearing",
      "outputs": [
        {
          "internalType": "bool",
          "name": "",
          "type": "bool"
        }
      ],
      "stateMutability": "view",
      "type": "function"
    },
    {
      "inputs": [
        {
          "internalType": "uint256",
          "name": "token",
          "type": "uint256"
        },
        {
          "internalType": "uint256[]",
          "name": "items",
          "type": "uint256[]"
        }
      ],
      "name": "isWearing",
      "outputs": [
        {
          "internalType": "bool[]",
          "name": "",
          "type": "bool[]"
        }
      ],
      "stateMutability": "view",
      "type": "function"
    },
    {
      "inputs": [
        {
          "internalType": "uint256",
          "name": "",
          "type": "uint256"
        },
        {
          "internalType": "uint256",
          "name": "",
          "type": "uint256"
        }
      ],
      "name": "itemsIndex",
      "outputs": [
        {
          "internalType": "uint256",
          "name": "",
          "type": "uint256"
        }
      ],
      "stateMutability": "view",
      "type": "function"
    },
    {
      "inputs": [
        {
          "internalType": "uint256",
          "name": "",
          "type": "uint256"
        },
        {
          "internalType": "uint256",
          "name": "",
          "type": "uint256"
        }
      ],
      "name": "itemsOwned",
      "outputs": [
        {
          "internalType": "uint256",
          "name": "",
          "type": "uint256"
        }
      ],
      "stateMutability": "view",
      "type": "function"
    },
    {
      "inputs": [
        {
          "internalType": "address",
          "name": "",
          "type": "address"
        },
        {
          "internalType": "address",
          "name": "",
          "type": "address"
        },
        {
          "internalType": "uint256[]",
          "name": "",
          "type": "uint256[]"
        },
        {
          "internalType": "uint256[]",
          "name": "",
          "type": "uint256[]"
        },
        {
          "internalType": "bytes",
          "name": "",
          "type": "bytes"
        }
      ],
      "name": "onERC1155BatchReceived",
      "outputs": [
        {
          "internalType": "bytes4",
          "name": "",
          "type": "bytes4"
        }
      ],
      "stateMutability": "nonpayable",
      "type": "function"
    },
    {
      "inputs": [
        {
          "internalType": "address",
          "name": "",
          "type": "address"
        },
        {
          "internalType": "address",
          "name": "",
          "type": "address"
        },
        {
          "internalType": "uint256",
          "name": "",
          "type": "uint256"
        },
        {
          "internalType": "uint256",
          "name": "",
          "type": "uint256"
        },
        {
          "internalType": "bytes",
          "name": "",
          "type": "bytes"
        }
      ],
      "name": "onERC1155Received",
      "outputs": [
        {
          "internalType": "bytes4",
          "name": "",
          "type": "bytes4"
        }
      ],
      "stateMutability": "nonpayable",
      "type": "function"
    },
    {
      "inputs": [
        {
          "internalType": "uint256",
          "name": "",
          "type": "uint256"
        }
      ],
      "name": "ownedLength",
      "outputs": [
        {
          "internalType": "uint256",
          "name": "",
          "type": "uint256"
        }
      ],
      "stateMutability": "view",
      "type": "function"
    },
    {
      "inputs": [
        {
          "internalType": "address",
          "name": "",
          "type": "address"
        },
        {
          "internalType": "address",
          "name": "",
          "type": "address"
        }
      ],
      "name": "pluginApproval",
      "outputs": [
        {
          "internalType": "bool",
          "name": "",
          "type": "bool"
        }
      ],
      "stateMutability": "view",
      "type": "function"
    },
    {
      "inputs": [
        {
          "internalType": "uint256",
          "name": "token",
          "type": "uint256"
        },
        {
          "internalType": "uint256[]",
          "name": "deposits",
          "type": "uint256[]"
        },
        {
          "internalType": "uint256[]",
          "name": "withdraws",
          "type": "uint256[]"
        },
        {
          "internalType": "address",
          "name": "receiver",
          "type": "address"
        }
      ],
      "name": "set",
      "outputs": [],
      "stateMutability": "nonpayable",
      "type": "function"
    },
    {
      "inputs": [
        {
          "internalType": "address",
          "name": "account",
          "type": "address"
        },
        {
          "internalType": "uint256",
          "name": "token",
          "type": "uint256"
        },
        {
          "internalType": "uint256[]",
          "name": "deposits",
          "type": "uint256[]"
        },
        {
          "internalType": "uint256[]",
          "name": "withdraws",
          "type": "uint256[]"
        },
        {
          "internalType": "address",
          "name": "receiver",
          "type": "address"
        }
      ],
      "name": "setForAccount",
      "outputs": [],
      "stateMutability": "nonpayable",
      "type": "function"
    }
  ],
  "transactionHash": "0x83a8a549ba55434f2f1d4e0b75cc1bc023ae3ea1cdf404684a32ee0bf8010fc2",
  "args": [
    "0x31A9E0d5E70739669156c0861F9fF23d40c1CF66",
    "0x328059D610FdAc8B218a0B204D50089240c1C60D"
  ],
  "numDeployments": 1,
  "solcInputHash": "d9b63976ce6dd21bf7032ddac5023b9f",
  "bytecode": "0x60c060405234801561001057600080fd5b5060405161152438038061152483398101604081905261002f9161005e565b6001600160a01b039182166080521660a052610098565b6001600160a01b038116811461005b57600080fd5b50565b6000806040838503121561007157600080fd5b825161007c81610046565b602084015190925061008d81610046565b809150509250929050565b60805160a05161144b6100d96000396000818161029b01528181610a470152610c500152600081816103460152818161051101526106b8015261144b6000f3fe608060405234801561001057600080fd5b50600436106100ea5760003560e01c80638f5cecbb1161008c5780639f2b03b6116100665780639f2b03b614610296578063bc197c81146102d5578063e8a4352014610341578063f23a6e611461036857600080fd5b80638f5cecbb146102505780639160d92e1461026357806399acf9fb1461027657600080fd5b80633d140d21116100c85780633d140d2114610166578063630accb6146101ca57806367b1c3d6146102085780636cafa74e1461023057600080fd5b80630541c707146100ef57806315267cca14610118578063224e632e1461012d575b600080fd5b6101026100fd366004610d1e565b6103a1565b60405161010f9190610d85565b60405180910390f35b61012b610126366004610df9565b6104a8565b005b61015861013b366004610e99565b600260209081526000928352604080842090915290825290205481565b60405190815260200161010f565b61012b610174366004610ebb565b3360009081526003602090815260408083206001600160a01b039590951683529390529190912080547fffffffffffffffffffffffffffffffffffffffffffffffffffffffffffffff0016911515919091179055565b6101f86101d8366004610ef9565b600360209081526000928352604080842090915290825290205460ff1681565b604051901515815260200161010f565b610158610216366004610e99565b600060208181529281526040808220909352908152205481565b61015861023e366004610f27565b60016020526000908152604090205481565b6101f861025e366004610e99565b61064c565b61012b610271366004610f40565b61067f565b610289610284366004610fe2565b6107d0565b60405161010f91906110ca565b6102bd7f000000000000000000000000000000000000000000000000000000000000000081565b6040516001600160a01b03909116815260200161010f565b6103106102e3366004611152565b7fbc197c810000000000000000000000000000000000000000000000000000000098975050505050505050565b6040517fffffffff00000000000000000000000000000000000000000000000000000000909116815260200161010f565b6102bd7f000000000000000000000000000000000000000000000000000000000000000081565b610310610376366004611211565b7ff23a6e61000000000000000000000000000000000000000000000000000000009695505050505050565b6000838152600160205260409020546060908084106103d05750506040805160008152602081019091526104a1565b6103da84826112a3565b9050808311156103e8578092505b60008367ffffffffffffffff81111561040357610403610fcc565b60405190808252806020026020018201604052801561042c578160200160208202803683370190505b50905060005b8481101561049c5760008781526020819052604081209061045383896112ba565b61045e9060016112ba565b81526020019081526020016000205482828151811061047f5761047f6112d2565b602090810291909101015280610494816112e8565b915050610432565b509150505b9392505050565b6001600160a01b038716600090815260036020908152604080832033845290915290205460ff16610505576040517fa8cda20200000000000000000000000000000000000000000000000000000000815260040160405180910390fd5b866001600160a01b03167f00000000000000000000000000000000000000000000000000000000000000006001600160a01b0316636352211e886040518263ffffffff1660e01b815260040161055d91815260200190565b60206040518083038186803b15801561057557600080fd5b505afa158015610589573d6000803e3d6000fd5b505050506040513d601f19601f820116820180604052508101906105ad9190611303565b6001600160a01b0316146105ed576040517f30cd747100000000000000000000000000000000000000000000000000000000815260040160405180910390fd5b6105f9878787876108b5565b61060581878585610abf565b857fd38e0444e598b6aa97e72569ad21fcf864167f41fbe1a43ec177c273a1d120c58686868660405161063b949392919061136f565b60405180910390a250505050505050565b6000828152600260209081526040808320848452909152812054801580159061067757506000198114155b949350505050565b6040517f6352211e0000000000000000000000000000000000000000000000000000000081526004810187905233906001600160a01b037f00000000000000000000000000000000000000000000000000000000000000001690636352211e9060240160206040518083038186803b1580156106fa57600080fd5b505afa15801561070e573d6000803e3d6000fd5b505050506040513d601f19601f820116820180604052508101906107329190611303565b6001600160a01b031614610772576040517f30cd747100000000000000000000000000000000000000000000000000000000815260040160405180910390fd5b61077e338787876108b5565b61078a81878585610abf565b857fd38e0444e598b6aa97e72569ad21fcf864167f41fbe1a43ec177c273a1d120c5868686866040516107c0949392919061136f565b60405180910390a2505050505050565b805160609060008167ffffffffffffffff8111156107f0576107f0610fcc565b604051908082528060200260200182016040528015610819578160200160208202803683370190505b50905060005b828110156108ac5760008681526002602052604081208651829088908590811061084b5761084b6112d2565b602002602001015181526020019081526020016000205490508060001415801561087757506000198114155b838381518110610889576108896112d2565b9115156020928302919091019091015250806108a4816112e8565b91505061081f565b50949350505050565b6000838152600160205260408120549082908167ffffffffffffffff8111156108e0576108e0610fcc565b604051908082528060200260200182016040528015610909578160200160208202803683370190505b50905060005b828110156109c957600086868381811061092b5761092b6112d2565b905060200201359050610961600260008a8152602001908152602001600020600083815260200190815260200160002054610c8d565b8461096b816112e8565b60008a81526020818152604080832084845282528083208690558c83526002825280832086845290915290208190558451909650600191508490849081106109b5576109b56112d2565b60209081029190910101525060010161090f565b50600019831415610a06576040517f8d6aa6ba00000000000000000000000000000000000000000000000000000000815260040160405180910390fd5b60008681526001602052604090819020849055517f2eb2c2d60000000000000000000000000000000000000000000000000000000081526001600160a01b037f00000000000000000000000000000000000000000000000000000000000000001690632eb2c2d690610a84908a9030908a908a9088906004016113a1565b600060405180830381600087803b158015610a9e57600080fd5b505af1158015610ab2573d6000803e3d6000fd5b5050505050505050505050565b6000838152600160205260408120549082908167ffffffffffffffff811115610aea57610aea610fcc565b604051908082528060200260200182016040528015610b13578160200160208202803683370190505b50905060005b82811015610c0e576000868683818110610b3557610b356112d2565b60008b815260026020908152604080832093820295909501358083529290529290922054919250610b67905081610cd8565b858114610ba5576000898152602081815260408083208984528252808320548484528184208190558c84526002835281842090845290915290208190555b60008981526002602090815260408083208584528252808320600019908190558c84528383528184208a85529092529091205585610be2816113fe565b9650506001848481518110610bf957610bf96112d2565b60209081029190910101525050600101610b19565b5060008681526001602052604090819020849055517f2eb2c2d60000000000000000000000000000000000000000000000000000000081526001600160a01b037f00000000000000000000000000000000000000000000000000000000000000001690632eb2c2d690610a849030908b908a908a9088906004016113a1565b8015801590610c9e57506000198114155b15610cd5576040517fd5a8211500000000000000000000000000000000000000000000000000000000815260040160405180910390fd5b50565b80158015610ce7575060001981145b15610cd5576040517f92a27daf00000000000000000000000000000000000000000000000000000000815260040160405180910390fd5b600080600060608486031215610d3357600080fd5b505081359360208301359350604090920135919050565b600081518084526020808501945080840160005b83811015610d7a57815187529582019590820190600101610d5e565b509495945050505050565b6020815260006104a16020830184610d4a565b6001600160a01b0381168114610cd557600080fd5b60008083601f840112610dbf57600080fd5b50813567ffffffffffffffff811115610dd757600080fd5b6020830191508360208260051b8501011115610df257600080fd5b9250929050565b600080600080600080600060a0888a031215610e1457600080fd5b8735610e1f81610d98565b965060208801359550604088013567ffffffffffffffff80821115610e4357600080fd5b610e4f8b838c01610dad565b909750955060608a0135915080821115610e6857600080fd5b50610e758a828b01610dad565b9094509250506080880135610e8981610d98565b8091505092959891949750929550565b60008060408385031215610eac57600080fd5b50508035926020909101359150565b60008060408385031215610ece57600080fd5b8235610ed981610d98565b915060208301358015158114610eee57600080fd5b809150509250929050565b60008060408385031215610f0c57600080fd5b8235610f1781610d98565b91506020830135610eee81610d98565b600060208284031215610f3957600080fd5b5035919050565b60008060008060008060808789031215610f5957600080fd5b86359550602087013567ffffffffffffffff80821115610f7857600080fd5b610f848a838b01610dad565b90975095506040890135915080821115610f9d57600080fd5b50610faa89828a01610dad565b9094509250506060870135610fbe81610d98565b809150509295509295509295565b634e487b7160e01b600052604160045260246000fd5b60008060408385031215610ff557600080fd5b8235915060208084013567ffffffffffffffff8082111561101557600080fd5b818601915086601f83011261102957600080fd5b81358181111561103b5761103b610fcc565b8060051b6040517fffffffffffffffffffffffffffffffffffffffffffffffffffffffffffffffe0603f8301168101818110858211171561107e5761107e610fcc565b60405291825284820192508381018501918983111561109c57600080fd5b938501935b828510156110ba578435845293850193928501926110a1565b8096505050505050509250929050565b6020808252825182820181905260009190848201906040850190845b818110156111045783511515835292840192918401916001016110e6565b50909695505050505050565b60008083601f84011261112257600080fd5b50813567ffffffffffffffff81111561113a57600080fd5b602083019150836020828501011115610df257600080fd5b60008060008060008060008060a0898b03121561116e57600080fd5b883561117981610d98565b9750602089013561118981610d98565b9650604089013567ffffffffffffffff808211156111a657600080fd5b6111b28c838d01610dad565b909850965060608b01359150808211156111cb57600080fd5b6111d78c838d01610dad565b909650945060808b01359150808211156111f057600080fd5b506111fd8b828c01611110565b999c989b5096995094979396929594505050565b60008060008060008060a0878903121561122a57600080fd5b863561123581610d98565b9550602087013561124581610d98565b94506040870135935060608701359250608087013567ffffffffffffffff81111561126f57600080fd5b61127b89828a01611110565b979a9699509497509295939492505050565b634e487b7160e01b600052601160045260246000fd5b6000828210156112b5576112b561128d565b500390565b600082198211156112cd576112cd61128d565b500190565b634e487b7160e01b600052603260045260246000fd5b60006000198214156112fc576112fc61128d565b5060010190565b60006020828403121561131557600080fd5b81516104a181610d98565b81835260007f07ffffffffffffffffffffffffffffffffffffffffffffffffffffffffffffff83111561135257600080fd5b8260051b8083602087013760009401602001938452509192915050565b604081526000611383604083018688611320565b8281036020840152611396818587611320565b979650505050505050565b60006001600160a01b03808816835280871660208401525060a060408301526113ce60a083018587611320565b82810360608401526113e08185610d4a565b83810360809094019390935250506000815260200195945050505050565b60008161140d5761140d61128d565b50600019019056fea264697066735822122048a2445be7fb35296efa3951338e34449649e1aff445752238171e5fe34b793a64736f6c63430008090033",
  "devdoc": {
    "author": "IrvingDevPro",
    "kind": "dev",
    "methods": {},
    "title": "Closet",
    "version": 1
  },
  "userdoc": {
    "kind": "user",
    "methods": {
      "itemsIndex(uint256,uint256)": {
        "notice": "Keep the index of an item on the list"
      },
      "itemsOwned(uint256,uint256)": {
        "notice": "Keep the list of items owned by an NFT"
      },
      "ownedLength(uint256)": {
        "notice": "Keep the length of the list of items by an NFT"
      },
      "pluginApproval(address,address)": {
        "notice": "Let user appove plugin"
      }
    },
    "notice": "Permit GBC holders add and remove items from lab to their GBC",
    "version": 1
  },
  "storageLayout": {
    "storage": [
      {
        "astId": 6061,
        "contract": "src/lab/Closet.sol:Closet",
        "label": "itemsOwned",
        "offset": 0,
        "slot": "0",
        "type": "t_mapping(t_uint256,t_mapping(t_uint256,t_uint256))"
      },
      {
        "astId": 6066,
        "contract": "src/lab/Closet.sol:Closet",
        "label": "ownedLength",
        "offset": 0,
        "slot": "1",
        "type": "t_mapping(t_uint256,t_uint256)"
      },
      {
        "astId": 6073,
        "contract": "src/lab/Closet.sol:Closet",
        "label": "itemsIndex",
        "offset": 0,
        "slot": "2",
        "type": "t_mapping(t_uint256,t_mapping(t_uint256,t_uint256))"
      },
      {
        "astId": 6080,
        "contract": "src/lab/Closet.sol:Closet",
        "label": "pluginApproval",
        "offset": 0,
        "slot": "3",
        "type": "t_mapping(t_address,t_mapping(t_address,t_bool))"
      }
    ],
    "types": {
      "t_address": {
        "encoding": "inplace",
        "label": "address",
        "numberOfBytes": "20"
      },
      "t_bool": {
        "encoding": "inplace",
        "label": "bool",
        "numberOfBytes": "1"
      },
      "t_mapping(t_address,t_bool)": {
        "encoding": "mapping",
        "key": "t_address",
        "label": "mapping(address => bool)",
        "numberOfBytes": "32",
        "value": "t_bool"
      },
      "t_mapping(t_address,t_mapping(t_address,t_bool))": {
        "encoding": "mapping",
        "key": "t_address",
        "label": "mapping(address => mapping(address => bool))",
        "numberOfBytes": "32",
        "value": "t_mapping(t_address,t_bool)"
      },
      "t_mapping(t_uint256,t_mapping(t_uint256,t_uint256))": {
        "encoding": "mapping",
        "key": "t_uint256",
        "label": "mapping(uint256 => mapping(uint256 => uint256))",
        "numberOfBytes": "32",
        "value": "t_mapping(t_uint256,t_uint256)"
      },
      "t_mapping(t_uint256,t_uint256)": {
        "encoding": "mapping",
        "key": "t_uint256",
        "label": "mapping(uint256 => uint256)",
        "numberOfBytes": "32",
        "value": "t_uint256"
      },
      "t_uint256": {
        "encoding": "inplace",
        "label": "uint256",
        "numberOfBytes": "32"
      }
    }
  }
}