{
  "address": "0x31A9E0d5E70739669156c0861F9fF23d40c1CF66",
  "abi": [
    {
      "inputs": [
        {
          "internalType": "string",
          "name": "name",
          "type": "string"
        },
        {
          "internalType": "string",
          "name": "symbol",
          "type": "string"
        },
        {
          "internalType": "string",
          "name": "baseTokenURI",
          "type": "string"
        }
      ],
      "stateMutability": "nonpayable",
      "type": "constructor"
    },
    {
      "anonymous": false,
      "inputs": [
        {
          "indexed": true,
          "internalType": "address",
          "name": "owner",
          "type": "address"
        },
        {
          "indexed": true,
          "internalType": "address",
          "name": "approved",
          "type": "address"
        },
        {
          "indexed": true,
          "internalType": "uint256",
          "name": "tokenId",
          "type": "uint256"
        }
      ],
      "name": "Approval",
      "type": "event"
    },
    {
      "anonymous": false,
      "inputs": [
        {
          "indexed": true,
          "internalType": "address",
          "name": "owner",
          "type": "address"
        },
        {
          "indexed": true,
          "internalType": "address",
          "name": "operator",
          "type": "address"
        },
        {
          "indexed": false,
          "internalType": "bool",
          "name": "approved",
          "type": "bool"
        }
      ],
      "name": "ApprovalForAll",
      "type": "event"
    },
    {
      "anonymous": false,
      "inputs": [
        {
          "indexed": true,
          "internalType": "address",
          "name": "previousOwner",
          "type": "address"
        },
        {
          "indexed": true,
          "internalType": "address",
          "name": "newOwner",
          "type": "address"
        }
      ],
      "name": "OwnershipTransferred",
      "type": "event"
    },
    {
      "anonymous": false,
      "inputs": [
        {
          "indexed": true,
          "internalType": "address",
          "name": "from",
          "type": "address"
        },
        {
          "indexed": true,
          "internalType": "address",
          "name": "to",
          "type": "address"
        },
        {
          "indexed": true,
          "internalType": "uint256",
          "name": "tokenId",
          "type": "uint256"
        }
      ],
      "name": "Transfer",
      "type": "event"
    },
    {
      "inputs": [],
      "name": "_baseTokenURI",
      "outputs": [
        {
          "internalType": "string",
          "name": "",
          "type": "string"
        }
      ],
      "stateMutability": "view",
      "type": "function"
    },
    {
      "inputs": [
        {
          "internalType": "uint256",
          "name": "_mintAmount",
          "type": "uint256"
        },
        {
          "internalType": "address",
          "name": "_to",
          "type": "address"
        }
      ],
      "name": "adminMint",
      "outputs": [],
      "stateMutability": "nonpayable",
      "type": "function"
    },
    {
      "inputs": [
        {
          "internalType": "address",
          "name": "to",
          "type": "address"
        },
        {
          "internalType": "uint256",
          "name": "tokenId",
          "type": "uint256"
        }
      ],
      "name": "approve",
      "outputs": [],
      "stateMutability": "nonpayable",
      "type": "function"
    },
    {
      "inputs": [
        {
          "internalType": "address",
          "name": "owner",
          "type": "address"
        }
      ],
      "name": "balanceOf",
      "outputs": [
        {
          "internalType": "uint256",
          "name": "",
          "type": "uint256"
        }
      ],
      "stateMutability": "view",
      "type": "function"
    },
    {
      "inputs": [
        {
          "internalType": "bytes",
          "name": "sig",
          "type": "bytes"
        }
      ],
      "name": "claim",
      "outputs": [],
      "stateMutability": "nonpayable",
      "type": "function"
    },
    {
      "inputs": [],
      "name": "cost",
      "outputs": [
        {
          "internalType": "uint256",
          "name": "",
          "type": "uint256"
        }
      ],
      "stateMutability": "view",
      "type": "function"
    },
    {
      "inputs": [],
      "name": "freezeBaseURI",
      "outputs": [],
      "stateMutability": "nonpayable",
      "type": "function"
    },
    {
      "inputs": [
        {
          "internalType": "uint256",
          "name": "tokenId",
          "type": "uint256"
        }
      ],
      "name": "getApproved",
      "outputs": [
        {
          "internalType": "address",
          "name": "",
          "type": "address"
        }
      ],
      "stateMutability": "view",
      "type": "function"
    },
    {
      "inputs": [
        {
          "internalType": "address",
          "name": "owner",
          "type": "address"
        },
        {
          "internalType": "address",
          "name": "operator",
          "type": "address"
        }
      ],
      "name": "isApprovedForAll",
      "outputs": [
        {
          "internalType": "bool",
          "name": "",
          "type": "bool"
        }
      ],
      "stateMutability": "view",
      "type": "function"
    },
    {
      "inputs": [
        {
          "internalType": "address",
          "name": "_address",
          "type": "address"
        }
      ],
      "name": "isBlacklisted",
      "outputs": [
        {
          "internalType": "bool",
          "name": "",
          "type": "bool"
        }
      ],
      "stateMutability": "view",
      "type": "function"
    },
    {
      "inputs": [],
      "name": "max",
      "outputs": [
        {
          "internalType": "uint256",
          "name": "",
          "type": "uint256"
        }
      ],
      "stateMutability": "view",
      "type": "function"
    },
    {
      "inputs": [],
      "name": "maxMintPerTx",
      "outputs": [
        {
          "internalType": "uint256",
          "name": "",
          "type": "uint256"
        }
      ],
      "stateMutability": "view",
      "type": "function"
    },
    {
      "inputs": [
        {
          "internalType": "uint256",
          "name": "_mintAmount",
          "type": "uint256"
        }
      ],
      "name": "mint",
      "outputs": [],
      "stateMutability": "payable",
      "type": "function"
    },
    {
      "inputs": [],
      "name": "name",
      "outputs": [
        {
          "internalType": "string",
          "name": "",
          "type": "string"
        }
      ],
      "stateMutability": "view",
      "type": "function"
    },
    {
      "inputs": [],
      "name": "owner",
      "outputs": [
        {
          "internalType": "address",
          "name": "",
          "type": "address"
        }
      ],
      "stateMutability": "view",
      "type": "function"
    },
    {
      "inputs": [
        {
          "internalType": "uint256",
          "name": "tokenId",
          "type": "uint256"
        }
      ],
      "name": "ownerOf",
      "outputs": [
        {
          "internalType": "address",
          "name": "",
          "type": "address"
        }
      ],
      "stateMutability": "view",
      "type": "function"
    },
    {
      "inputs": [],
      "name": "publicSaleStarted",
      "outputs": [
        {
          "internalType": "bool",
          "name": "",
          "type": "bool"
        }
      ],
      "stateMutability": "view",
      "type": "function"
    },
    {
      "inputs": [],
      "name": "renounceOwnership",
      "outputs": [],
      "stateMutability": "nonpayable",
      "type": "function"
    },
    {
      "inputs": [
        {
          "internalType": "address",
          "name": "from",
          "type": "address"
        },
        {
          "internalType": "address",
          "name": "to",
          "type": "address"
        },
        {
          "internalType": "uint256",
          "name": "tokenId",
          "type": "uint256"
        }
      ],
      "name": "safeTransferFrom",
      "outputs": [],
      "stateMutability": "nonpayable",
      "type": "function"
    },
    {
      "inputs": [
        {
          "internalType": "address",
          "name": "from",
          "type": "address"
        },
        {
          "internalType": "address",
          "name": "to",
          "type": "address"
        },
        {
          "internalType": "uint256",
          "name": "tokenId",
          "type": "uint256"
        },
        {
          "internalType": "bytes",
          "name": "data",
          "type": "bytes"
        }
      ],
      "name": "safeTransferFrom",
      "outputs": [],
      "stateMutability": "nonpayable",
      "type": "function"
    },
    {
      "inputs": [
        {
          "internalType": "address",
          "name": "operator",
          "type": "address"
        },
        {
          "internalType": "bool",
          "name": "approved",
          "type": "bool"
        }
      ],
      "name": "setApprovalForAll",
      "outputs": [],
      "stateMutability": "nonpayable",
      "type": "function"
    },
    {
      "inputs": [
        {
          "internalType": "string",
          "name": "uri",
          "type": "string"
        }
      ],
      "name": "setBaseTokenURI",
      "outputs": [],
      "stateMutability": "nonpayable",
      "type": "function"
    },
    {
      "inputs": [
        {
          "internalType": "uint256",
          "name": "price",
          "type": "uint256"
        }
      ],
      "name": "setCost",
      "outputs": [],
      "stateMutability": "nonpayable",
      "type": "function"
    },
    {
      "inputs": [
        {
          "internalType": "address",
          "name": "signer",
          "type": "address"
        }
      ],
      "name": "setWLSigner",
      "outputs": [],
      "stateMutability": "nonpayable",
      "type": "function"
    },
    {
      "inputs": [],
      "name": "startPublicSale",
      "outputs": [],
      "stateMutability": "nonpayable",
      "type": "function"
    },
    {
      "inputs": [],
      "name": "startWLMint",
      "outputs": [],
      "stateMutability": "nonpayable",
      "type": "function"
    },
    {
      "inputs": [
        {
          "internalType": "bytes4",
          "name": "interfaceId",
          "type": "bytes4"
        }
      ],
      "name": "supportsInterface",
      "outputs": [
        {
          "internalType": "bool",
          "name": "",
          "type": "bool"
        }
      ],
      "stateMutability": "view",
      "type": "function"
    },
    {
      "inputs": [],
      "name": "symbol",
      "outputs": [
        {
          "internalType": "string",
          "name": "",
          "type": "string"
        }
      ],
      "stateMutability": "view",
      "type": "function"
    },
    {
      "inputs": [
        {
          "internalType": "uint256",
          "name": "index",
          "type": "uint256"
        }
      ],
      "name": "tokenByIndex",
      "outputs": [
        {
          "internalType": "uint256",
          "name": "",
          "type": "uint256"
        }
      ],
      "stateMutability": "view",
      "type": "function"
    },
    {
      "inputs": [
        {
          "internalType": "address",
          "name": "owner",
          "type": "address"
        },
        {
          "internalType": "uint256",
          "name": "index",
          "type": "uint256"
        }
      ],
      "name": "tokenOfOwnerByIndex",
      "outputs": [
        {
          "internalType": "uint256",
          "name": "",
          "type": "uint256"
        }
      ],
      "stateMutability": "view",
      "type": "function"
    },
    {
      "inputs": [
        {
          "internalType": "uint256",
          "name": "tokenId",
          "type": "uint256"
        }
      ],
      "name": "tokenURI",
      "outputs": [
        {
          "internalType": "string",
          "name": "",
          "type": "string"
        }
      ],
      "stateMutability": "view",
      "type": "function"
    },
    {
      "inputs": [],
      "name": "tokenURIFrozen",
      "outputs": [
        {
          "internalType": "bool",
          "name": "",
          "type": "bool"
        }
      ],
      "stateMutability": "view",
      "type": "function"
    },
    {
      "inputs": [],
      "name": "totalSupply",
      "outputs": [
        {
          "internalType": "uint256",
          "name": "",
          "type": "uint256"
        }
      ],
      "stateMutability": "view",
      "type": "function"
    },
    {
      "inputs": [
        {
          "internalType": "address",
          "name": "from",
          "type": "address"
        },
        {
          "internalType": "address",
          "name": "to",
          "type": "address"
        },
        {
          "internalType": "uint256",
          "name": "tokenId",
          "type": "uint256"
        }
      ],
      "name": "transferFrom",
      "outputs": [],
      "stateMutability": "nonpayable",
      "type": "function"
    },
    {
      "inputs": [
        {
          "internalType": "address",
          "name": "newOwner",
          "type": "address"
        }
      ],
      "name": "transferOwnership",
      "outputs": [],
      "stateMutability": "nonpayable",
      "type": "function"
    },
    {
      "inputs": [
        {
          "internalType": "address",
          "name": "_owner",
          "type": "address"
        }
      ],
      "name": "walletOfOwner",
      "outputs": [
        {
          "internalType": "uint256[]",
          "name": "",
          "type": "uint256[]"
        }
      ],
      "stateMutability": "view",
      "type": "function"
    },
    {
      "inputs": [
        {
          "internalType": "uint256",
          "name": "_mintAmount",
          "type": "uint256"
        },
        {
          "internalType": "bytes",
          "name": "sig",
          "type": "bytes"
        }
      ],
      "name": "whitelistMint",
      "outputs": [],
      "stateMutability": "payable",
      "type": "function"
    },
    {
      "inputs": [
        {
          "internalType": "address",
          "name": "token",
          "type": "address"
        },
        {
          "internalType": "uint256",
          "name": "amount",
          "type": "uint256"
        }
      ],
      "name": "withdraw",
      "outputs": [],
      "stateMutability": "nonpayable",
      "type": "function"
    },
    {
      "inputs": [],
      "name": "wlMintStarted",
      "outputs": [
        {
          "internalType": "bool",
          "name": "",
          "type": "bool"
        }
      ],
      "stateMutability": "view",
      "type": "function"
    },
    {
      "inputs": [],
      "name": "wlSigner",
      "outputs": [
        {
          "internalType": "address",
          "name": "",
          "type": "address"
        }
      ],
      "stateMutability": "view",
      "type": "function"
    }
  ],
  "transactionHash": "0x8acb01f8d37b72f3aa1b1feb8292c6d990c6f9dd785def1b2cabcd57f680bb6e",
  "args": [
    "Blueberry Club",
    "GBC",
    ""
  ],
  "numDeployments": 1,
  "solcInputHash": "d9b63976ce6dd21bf7032ddac5023b9f",
  "bytecode": "0x6080604052612710600d556014600e55600f805462ffffff19169055666a94d74f4300006010553480156200003357600080fd5b5060405162003241380380620032418339810160408190526200005691620002a5565b82826200006333620000d9565b81516200007890600190602085019062000132565b5080516200008e90600290602084019062000132565b50508151620000a69150600c90602084019062000132565b50620000be600b6200012960201b620019591760201c565b5050601180546001600160a01b031916301790555062000373565b600080546001600160a01b038381166001600160a01b0319831681178455604051919092169283917f8be0079c531659141344cd1fd0a4f28419497f9722a3daafe3b4186f6b6457e09190a35050565b80546001019055565b828054620001409062000336565b90600052602060002090601f016020900481019282620001645760008555620001af565b82601f106200017f57805160ff1916838001178555620001af565b82800160010185558215620001af579182015b82811115620001af57825182559160200191906001019062000192565b50620001bd929150620001c1565b5090565b5b80821115620001bd5760008155600101620001c2565b634e487b7160e01b600052604160045260246000fd5b600082601f8301126200020057600080fd5b81516001600160401b03808211156200021d576200021d620001d8565b604051601f8301601f19908116603f01168101908282118183101715620002485762000248620001d8565b816040528381526020925086838588010111156200026557600080fd5b600091505b838210156200028957858201830151818301840152908201906200026a565b838211156200029b5760008385830101525b9695505050505050565b600080600060608486031215620002bb57600080fd5b83516001600160401b0380821115620002d357600080fd5b620002e187838801620001ee565b94506020860151915080821115620002f857600080fd5b6200030687838801620001ee565b935060408601519150808211156200031d57600080fd5b506200032c86828701620001ee565b9150509250925092565b600181811c908216806200034b57607f821691505b602082108114156200036d57634e487b7160e01b600052602260045260246000fd5b50919050565b612ebe80620003836000396000f3fe6080604052600436106102bb5760003560e01c80637e5f3e141161016e578063c63ff8dd116100cb578063e7bc82081161007f578063f2fde38b11610064578063f2fde38b14610747578063f3fef3a314610767578063fe575a871461078757600080fd5b8063e7bc8208146106e9578063e985e9c5146106fe57600080fd5b8063cfc86f7b116100b0578063cfc86f7b1461069e578063dce042fd146106b3578063de7fcb1d146106d357600080fd5b8063c63ff8dd1461065e578063c87b56dd1461067e57600080fd5b8063a0712d6811610122578063a2e9147711610107578063a2e9147714610604578063b88d4fde1461061e578063c29de6301461063e57600080fd5b8063a0712d68146105d1578063a22cb465146105e457600080fd5b8063927a5d2111610153578063927a5d211461058a57806395d89b41146105a95780639e852f75146105be57600080fd5b80637e5f3e14146105575780638da5cb5b1461056c57600080fd5b80632f745c591161021c5780634f6ccce7116101d05780636ac5db19116101b55780636ac5db191461050c57806370a0823114610522578063715018a61461054257600080fd5b80634f6ccce7146104cc5780636352211e146104ec57600080fd5b806342842e0e1161020157806342842e0e1461045f578063438b63001461047f57806344a0d68a146104ac57600080fd5b80632f745c591461041f57806330176e131461043f57600080fd5b80630c1c972a1161027357806313faede61161025857806313faede6146103c657806318160ddd146103ea57806323b872dd146103ff57600080fd5b80630c1c972a146103915780630dc28efe146103a657600080fd5b806306fdde03116102a457806306fdde0314610317578063081812fc14610339578063095ea7b31461037157600080fd5b806301ffc9a7146102c05780630399e3bc146102f5575b600080fd5b3480156102cc57600080fd5b506102e06102db366004612882565b6107c0565b60405190151581526020015b60405180910390f35b34801561030157600080fd5b506103156103103660046128bb565b6107d1565b005b34801561032357600080fd5b5061032c610889565b6040516102ec919061292e565b34801561034557600080fd5b50610359610354366004612941565b61091b565b6040516001600160a01b0390911681526020016102ec565b34801561037d57600080fd5b5061031561038c36600461295a565b610942565b34801561039d57600080fd5b50610315610a74565b3480156103b257600080fd5b506103156103c1366004612984565b610a8b565b3480156103d257600080fd5b506103dc60105481565b6040519081526020016102ec565b3480156103f657600080fd5b506009546103dc565b34801561040b57600080fd5b5061031561041a3660046129b0565b610b2f565b34801561042b57600080fd5b506103dc61043a36600461295a565b610bb6565b34801561044b57600080fd5b5061031561045a366004612a78565b610c5e565b34801561046b57600080fd5b5061031561047a3660046129b0565b610cd6565b34801561048b57600080fd5b5061049f61049a3660046128bb565b610cf1565b6040516102ec9190612ac1565b3480156104b857600080fd5b506103156104c7366004612941565b610d93565b3480156104d857600080fd5b506103dc6104e7366004612941565b610da0565b3480156104f857600080fd5b50610359610507366004612941565b610e44565b34801561051857600080fd5b506103dc600d5481565b34801561052e57600080fd5b506103dc61053d3660046128bb565b610ea9565b34801561054e57600080fd5b50610315610f43565b34801561056357600080fd5b50610315610f57565b34801561057857600080fd5b506000546001600160a01b0316610359565b34801561059657600080fd5b50600f546102e090610100900460ff1681565b3480156105b557600080fd5b5061032c610f8d565b6103156105cc366004612b25565b610f9c565b6103156105df366004612941565b6112c6565b3480156105f057600080fd5b506103156105ff366004612b7a565b611485565b34801561061057600080fd5b50600f546102e09060ff1681565b34801561062a57600080fd5b50610315610639366004612bb1565b611490565b34801561064a57600080fd5b50600f546102e09062010000900460ff1681565b34801561066a57600080fd5b50610315610679366004612c19565b61151e565b34801561068a57600080fd5b5061032c610699366004612941565b6116ca565b3480156106aa57600080fd5b5061032c611731565b3480156106bf57600080fd5b50601154610359906001600160a01b031681565b3480156106df57600080fd5b506103dc600e5481565b3480156106f557600080fd5b506103156117bf565b34801561070a57600080fd5b506102e0610719366004612c4e565b6001600160a01b03918216600090815260066020908152604080832093909416825291909152205460ff1690565b34801561075357600080fd5b506103156107623660046128bb565b6117f6565b34801561077357600080fd5b5061031561078236600461295a565b611886565b34801561079357600080fd5b506102e06107a23660046128bb565b6001600160a01b031660009081526012602052604090205460ff1690565b60006107cb82611962565b92915050565b6107d96119a0565b6001600160a01b03811661085a5760405162461bcd60e51b815260206004820152602360248201527f43616e27742073657420574c207369676e65722061732030783030206164647260448201527f657373000000000000000000000000000000000000000000000000000000000060648201526084015b60405180910390fd5b6011805473ffffffffffffffffffffffffffffffffffffffff19166001600160a01b0392909216919091179055565b60606001805461089890612c78565b80601f01602080910402602001604051908101604052809291908181526020018280546108c490612c78565b80156109115780601f106108e657610100808354040283529160200191610911565b820191906000526020600020905b8154815290600101906020018083116108f457829003601f168201915b5050505050905090565b6000610926826119fa565b506000908152600560205260409020546001600160a01b031690565b600061094d82610e44565b9050806001600160a01b0316836001600160a01b031614156109d75760405162461bcd60e51b815260206004820152602160248201527f4552433732313a20617070726f76616c20746f2063757272656e74206f776e6560448201527f72000000000000000000000000000000000000000000000000000000000000006064820152608401610851565b336001600160a01b03821614806109f357506109f38133610719565b610a655760405162461bcd60e51b815260206004820152603e60248201527f4552433732313a20617070726f76652063616c6c6572206973206e6f7420746f60448201527f6b656e206f776e6572206e6f7220617070726f76656420666f7220616c6c00006064820152608401610851565b610a6f8383611a5e565b505050565b610a7c6119a0565b600f805460ff19166001179055565b610a936119a0565b60015b828111610a6f57600d54600b541115610afd5760405162461bcd60e51b815260206004820152602360248201527f5472616e73616374696f6e2065786365656473206d6178206d696e7420616d6f6044820152621d5b9d60ea1b6064820152608401610851565b610b0f82610b0a600b5490565b611ad9565b610b1d600b80546001019055565b80610b2781612cc9565b915050610a96565b610b393382611c34565b610bab5760405162461bcd60e51b815260206004820152602e60248201527f4552433732313a2063616c6c6572206973206e6f7420746f6b656e206f776e6560448201527f72206e6f7220617070726f7665640000000000000000000000000000000000006064820152608401610851565b610a6f838383611cb3565b6000610bc183610ea9565b8210610c355760405162461bcd60e51b815260206004820152602b60248201527f455243373231456e756d657261626c653a206f776e657220696e646578206f7560448201527f74206f6620626f756e64730000000000000000000000000000000000000000006064820152608401610851565b506001600160a01b03919091166000908152600760209081526040808320938352929052205490565b610c666119a0565b600f5462010000900460ff1615610cbf5760405162461bcd60e51b815260206004820152601560248201527f546f6b656e2055524973206172652066726f7a656e00000000000000000000006044820152606401610851565b8051610cd290600c9060208401906127d3565b5050565b610a6f83838360405180602001604052806000815250611490565b60606000610cfe83610ea9565b905060008167ffffffffffffffff811115610d1b57610d1b6129ec565b604051908082528060200260200182016040528015610d44578160200160208202803683370190505b50905060005b82811015610d8b57610d5c8582610bb6565b828281518110610d6e57610d6e612ce4565b602090810291909101015280610d8381612cc9565b915050610d4a565b509392505050565b610d9b6119a0565b601055565b6000610dab60095490565b8210610e1f5760405162461bcd60e51b815260206004820152602c60248201527f455243373231456e756d657261626c653a20676c6f62616c20696e646578206f60448201527f7574206f6620626f756e647300000000000000000000000000000000000000006064820152608401610851565b60098281548110610e3257610e32612ce4565b90600052602060002001549050919050565b6000818152600360205260408120546001600160a01b0316806107cb5760405162461bcd60e51b815260206004820152601860248201527f4552433732313a20696e76616c696420746f6b656e20494400000000000000006044820152606401610851565b60006001600160a01b038216610f275760405162461bcd60e51b815260206004820152602960248201527f4552433732313a2061646472657373207a65726f206973206e6f74206120766160448201527f6c6964206f776e657200000000000000000000000000000000000000000000006064820152608401610851565b506001600160a01b031660009081526004602052604090205490565b610f4b6119a0565b610f556000611e98565b565b610f5f6119a0565b600f80547fffffffffffffffffffffffffffffffffffffffffffffffffffffffffffff00ff16610100179055565b60606002805461089890612c78565b600f5460ff161515600114610ff35760405162461bcd60e51b815260206004820152601b60248201527f5075626c69632053616c65206e6f7420737461727465642079657400000000006044820152606401610851565b600f5460ff6101009091041615156001146110505760405162461bcd60e51b815260206004820152601760248201527f574c204d696e74206e6f742073746172746564207965740000000000000000006044820152606401610851565b600e548211156110c85760405162461bcd60e51b815260206004820152602a60248201527f45786365656473206d617820616d6f756e7420706572207472616e736163746960448201527f6f6e20616c6c6f776564000000000000000000000000000000000000000000006064820152608401610851565b6110d28133611ef5565b15156001146111235760405162461bcd60e51b815260206004820152601660248201527f5369676e6174757265206973206e6f742076616c6964000000000000000000006044820152606401610851565b3360009081526012602052604090205460ff16156111a95760405162461bcd60e51b815260206004820152602960248201527f546869732077686974656c697374656420616464726573732077617320616c7260448201527f65616479207573656400000000000000000000000000000000000000000000006064820152608401610851565b6111b4600183612cfa565b6010546111c19190612d11565b3410156112105760405162461bcd60e51b815260206004820152601960248201527f4e6f7420656e6f7567682065746865722070726f7669646564000000000000006044820152606401610851565b60015b8281116112a757600d54600b54111561127a5760405162461bcd60e51b815260206004820152602360248201527f5472616e73616374696f6e2065786365656473206d6178206d696e7420616d6f6044820152621d5b9d60ea1b6064820152608401610851565b611287335b600b54611ad9565b611295600b80546001019055565b8061129f81612cc9565b915050611213565b5050336000908152601260205260409020805460ff1916600117905550565b600f5460ff16151560011461131d5760405162461bcd60e51b815260206004820152601b60248201527f5075626c69632053616c65206e6f7420737461727465642079657400000000006044820152606401610851565b600e548111156113955760405162461bcd60e51b815260206004820152602a60248201527f45786365656473206d617820616d6f756e7420706572207472616e736163746960448201527f6f6e20616c6c6f776564000000000000000000000000000000000000000000006064820152608401610851565b806010546113a39190612d11565b3410156113f25760405162461bcd60e51b815260206004820152601960248201527f4e6f7420656e6f7567682065746865722070726f7669646564000000000000006044820152606401610851565b60015b818111610cd257600d54600b54111561145c5760405162461bcd60e51b815260206004820152602360248201527f5472616e73616374696f6e2065786365656473206d6178206d696e7420616d6f6044820152621d5b9d60ea1b6064820152608401610851565b6114653361127f565b611473600b80546001019055565b8061147d81612cc9565b9150506113f5565b610cd2338383611f75565b61149a3383611c34565b61150c5760405162461bcd60e51b815260206004820152602e60248201527f4552433732313a2063616c6c6572206973206e6f7420746f6b656e206f776e6560448201527f72206e6f7220617070726f7665640000000000000000000000000000000000006064820152608401610851565b61151884848484612044565b50505050565b600f5460ff61010090910416151560011461157b5760405162461bcd60e51b815260206004820152601760248201527f574c204d696e74206e6f742073746172746564207965740000000000000000006044820152606401610851565b6115858133611ef5565b15156001146115d65760405162461bcd60e51b815260206004820152601360248201527f5369676e6174757265206e6f742076616c6964000000000000000000000000006044820152606401610851565b3360009081526012602052604090205460ff16156116365760405162461bcd60e51b815260206004820152601d60248201527f5468697320616464726573732077617320616c726561647920757365640000006044820152606401610851565b600d54600b5411156116965760405162461bcd60e51b815260206004820152602360248201527f5472616e73616374696f6e2065786365656473206d6178206d696e7420616d6f6044820152621d5b9d60ea1b6064820152608401610851565b61169f3361127f565b6116ad600b80546001019055565b50336000908152601260205260409020805460ff19166001179055565b60606116d5826119fa565b60006116df6120cd565b905060008151116116ff576040518060200160405280600081525061172a565b80611709846120dc565b60405160200161171a929190612d30565b6040516020818303038152906040525b9392505050565b600c805461173e90612c78565b80601f016020809104026020016040519081016040528092919081815260200182805461176a90612c78565b80156117b75780601f1061178c576101008083540402835291602001916117b7565b820191906000526020600020905b81548152906001019060200180831161179a57829003601f168201915b505050505081565b6117c76119a0565b600f80547fffffffffffffffffffffffffffffffffffffffffffffffffffffffffff00ffff1662010000179055565b6117fe6119a0565b6001600160a01b03811661187a5760405162461bcd60e51b815260206004820152602660248201527f4f776e61626c653a206e6577206f776e657220697320746865207a65726f206160448201527f64647265737300000000000000000000000000000000000000000000000000006064820152608401610851565b61188381611e98565b50565b61188e6119a0565b6001600160a01b0382166118c957604051339082156108fc029083906000818181858888f19350505050158015610a6f573d6000803e3d6000fd5b6001600160a01b03821663a9059cbb336040516001600160e01b031960e084901b1681526001600160a01b03909116600482015260248101849052604401602060405180830381600087803b15801561192157600080fd5b505af1158015611935573d6000803e3d6000fd5b505050506040513d601f19601f82011682018060405250810190610a6f9190612d5f565b80546001019055565b60006001600160e01b031982167f780e9d630000000000000000000000000000000000000000000000000000000014806107cb57506107cb8261220e565b6000546001600160a01b03163314610f555760405162461bcd60e51b815260206004820181905260248201527f4f776e61626c653a2063616c6c6572206973206e6f7420746865206f776e65726044820152606401610851565b6000818152600360205260409020546001600160a01b03166118835760405162461bcd60e51b815260206004820152601860248201527f4552433732313a20696e76616c696420746f6b656e20494400000000000000006044820152606401610851565b6000818152600560205260409020805473ffffffffffffffffffffffffffffffffffffffff19166001600160a01b0384169081179091558190611aa082610e44565b6001600160a01b03167f8c5be1e5ebec7d5bd14f71427d1e84f3dd0314c0f7b2291e5b200ac8c7c3b92560405160405180910390a45050565b6001600160a01b038216611b2f5760405162461bcd60e51b815260206004820181905260248201527f4552433732313a206d696e7420746f20746865207a65726f20616464726573736044820152606401610851565b6000818152600360205260409020546001600160a01b031615611b945760405162461bcd60e51b815260206004820152601c60248201527f4552433732313a20746f6b656e20616c7265616479206d696e746564000000006044820152606401610851565b611ba0600083836122a9565b6001600160a01b0382166000908152600460205260408120805460019290611bc9908490612d7c565b9091555050600081815260036020526040808220805473ffffffffffffffffffffffffffffffffffffffff19166001600160a01b03861690811790915590518392907fddf252ad1be2c89b69c2b068fc378daa952ba7f163c4a11628f55a4df523b3ef908290a45050565b600080611c4083610e44565b9050806001600160a01b0316846001600160a01b03161480611c8757506001600160a01b0380821660009081526006602090815260408083209388168352929052205460ff165b80611cab5750836001600160a01b0316611ca08461091b565b6001600160a01b0316145b949350505050565b826001600160a01b0316611cc682610e44565b6001600160a01b031614611d425760405162461bcd60e51b815260206004820152602560248201527f4552433732313a207472616e736665722066726f6d20696e636f72726563742060448201527f6f776e65720000000000000000000000000000000000000000000000000000006064820152608401610851565b6001600160a01b038216611dbd5760405162461bcd60e51b8152602060048201526024808201527f4552433732313a207472616e7366657220746f20746865207a65726f2061646460448201527f72657373000000000000000000000000000000000000000000000000000000006064820152608401610851565b611dc88383836122a9565b611dd3600082611a5e565b6001600160a01b0383166000908152600460205260408120805460019290611dfc908490612cfa565b90915550506001600160a01b0382166000908152600460205260408120805460019290611e2a908490612d7c565b9091555050600081815260036020526040808220805473ffffffffffffffffffffffffffffffffffffffff19166001600160a01b0386811691821790925591518493918716917fddf252ad1be2c89b69c2b068fc378daa952ba7f163c4a11628f55a4df523b3ef91a4505050565b600080546001600160a01b0383811673ffffffffffffffffffffffffffffffffffffffff19831681178455604051919092169283917f8be0079c531659141344cd1fd0a4f28419497f9722a3daafe3b4186f6b6457e09190a35050565b6040517fffffffffffffffffffffffffffffffffffffffff00000000000000000000000030606090811b8216602084015283901b16603482015260009081906048016040516020818303038152906040528051906020012090506000611f5b82866122b4565b6011546001600160a01b0391821691161495945050505050565b816001600160a01b0316836001600160a01b03161415611fd75760405162461bcd60e51b815260206004820152601960248201527f4552433732313a20617070726f766520746f2063616c6c6572000000000000006044820152606401610851565b6001600160a01b03838116600081815260066020908152604080832094871680845294825291829020805460ff191686151590811790915591519182527f17307eab39ab6107e8899845ad3d59bd9653f200f220920489ca2b5937696c31910160405180910390a3505050565b61204f848484611cb3565b61205b848484846123f6565b6115185760405162461bcd60e51b815260206004820152603260248201527f4552433732313a207472616e7366657220746f206e6f6e20455243373231526560448201527f63656976657220696d706c656d656e74657200000000000000000000000000006064820152608401610851565b6060600c805461089890612c78565b60608161211c57505060408051808201909152600181527f3000000000000000000000000000000000000000000000000000000000000000602082015290565b8160005b8115612146578061213081612cc9565b915061213f9050600a83612daa565b9150612120565b60008167ffffffffffffffff811115612161576121616129ec565b6040519080825280601f01601f19166020018201604052801561218b576020820181803683370190505b5090505b8415611cab576121a0600183612cfa565b91506121ad600a86612dbe565b6121b8906030612d7c565b60f81b8183815181106121cd576121cd612ce4565b60200101907effffffffffffffffffffffffffffffffffffffffffffffffffffffffffffff1916908160001a905350612207600a86612daa565b945061218f565b60006001600160e01b031982167f80ac58cd00000000000000000000000000000000000000000000000000000000148061227157506001600160e01b031982167f5b5e139f00000000000000000000000000000000000000000000000000000000145b806107cb57507f01ffc9a7000000000000000000000000000000000000000000000000000000006001600160e01b03198316146107cb565b610a6f83838361258b565b60008060008084516041146122cf57600093505050506107cb565b50505060208201516040830151606084015160001a601b8110156122fb576122f8601b82612dd2565b90505b60006040518060400160405280601c81526020017f19457468657265756d205369676e6564204d6573736167653a0a33320000000081525090506000818860405160200161234a929190612df7565b6040516020818303038152906040528051906020012090508260ff16601b1415801561237a57508260ff16601c14155b1561238d576000955050505050506107cb565b60408051600081526020810180835283905260ff851691810191909152606081018690526080810185905260019060a0016020604051602081039080840390855afa1580156123e0573d6000803e3d6000fd5b50505060206040510351955050505050506107cb565b60006001600160a01b0384163b15612580576040517f150b7a020000000000000000000000000000000000000000000000000000000081526001600160a01b0385169063150b7a0290612453903390899088908890600401612e19565b602060405180830381600087803b15801561246d57600080fd5b505af192505050801561249d575060408051601f3d908101601f1916820190925261249a91810190612e55565b60015b61254d573d8080156124cb576040519150601f19603f3d011682016040523d82523d6000602084013e6124d0565b606091505b5080516125455760405162461bcd60e51b815260206004820152603260248201527f4552433732313a207472616e7366657220746f206e6f6e20455243373231526560448201527f63656976657220696d706c656d656e74657200000000000000000000000000006064820152608401610851565b805181602001fd5b6001600160e01b0319167f150b7a0200000000000000000000000000000000000000000000000000000000149050611cab565b506001949350505050565b6001600160a01b0383166125e6576125e181600980546000838152600a60205260408120829055600182018355919091527f6e1540171b6c0c960b71a7020d9f60077f6af931a8bbf590da0223dacf75c7af0155565b612609565b816001600160a01b0316836001600160a01b031614612609576126098382612643565b6001600160a01b03821661262057610a6f816126e0565b826001600160a01b0316826001600160a01b031614610a6f57610a6f828261278f565b6000600161265084610ea9565b61265a9190612cfa565b6000838152600860205260409020549091508082146126ad576001600160a01b03841660009081526007602090815260408083208584528252808320548484528184208190558352600890915290208190555b5060009182526008602090815260408084208490556001600160a01b039094168352600781528383209183525290812055565b6009546000906126f290600190612cfa565b6000838152600a60205260408120546009805493945090928490811061271a5761271a612ce4565b90600052602060002001549050806009838154811061273b5761273b612ce4565b6000918252602080832090910192909255828152600a9091526040808220849055858252812055600980548061277357612773612e72565b6001900381819060005260206000200160009055905550505050565b600061279a83610ea9565b6001600160a01b039093166000908152600760209081526040808320868452825280832085905593825260089052919091209190915550565b8280546127df90612c78565b90600052602060002090601f0160209004810192826128015760008555612847565b82601f1061281a57805160ff1916838001178555612847565b82800160010185558215612847579182015b8281111561284757825182559160200191906001019061282c565b50612853929150612857565b5090565b5b808211156128535760008155600101612858565b6001600160e01b03198116811461188357600080fd5b60006020828403121561289457600080fd5b813561172a8161286c565b80356001600160a01b03811681146128b657600080fd5b919050565b6000602082840312156128cd57600080fd5b61172a8261289f565b60005b838110156128f15781810151838201526020016128d9565b838111156115185750506000910152565b6000815180845261291a8160208601602086016128d6565b601f01601f19169290920160200192915050565b60208152600061172a6020830184612902565b60006020828403121561295357600080fd5b5035919050565b6000806040838503121561296d57600080fd5b6129768361289f565b946020939093013593505050565b6000806040838503121561299757600080fd5b823591506129a76020840161289f565b90509250929050565b6000806000606084860312156129c557600080fd5b6129ce8461289f565b92506129dc6020850161289f565b9150604084013590509250925092565b634e487b7160e01b600052604160045260246000fd5b600067ffffffffffffffff80841115612a1d57612a1d6129ec565b604051601f8501601f19908116603f01168101908282118183101715612a4557612a456129ec565b81604052809350858152868686011115612a5e57600080fd5b858560208301376000602087830101525050509392505050565b600060208284031215612a8a57600080fd5b813567ffffffffffffffff811115612aa157600080fd5b8201601f81018413612ab257600080fd5b611cab84823560208401612a02565b6020808252825182820181905260009190848201906040850190845b81811015612af957835183529284019291840191600101612add565b50909695505050505050565b600082601f830112612b1657600080fd5b61172a83833560208501612a02565b60008060408385031215612b3857600080fd5b82359150602083013567ffffffffffffffff811115612b5657600080fd5b612b6285828601612b05565b9150509250929050565b801515811461188357600080fd5b60008060408385031215612b8d57600080fd5b612b968361289f565b91506020830135612ba681612b6c565b809150509250929050565b60008060008060808587031215612bc757600080fd5b612bd08561289f565b9350612bde6020860161289f565b925060408501359150606085013567ffffffffffffffff811115612c0157600080fd5b612c0d87828801612b05565b91505092959194509250565b600060208284031215612c2b57600080fd5b813567ffffffffffffffff811115612c4257600080fd5b611cab84828501612b05565b60008060408385031215612c6157600080fd5b612c6a8361289f565b91506129a76020840161289f565b600181811c90821680612c8c57607f821691505b60208210811415612cad57634e487b7160e01b600052602260045260246000fd5b50919050565b634e487b7160e01b600052601160045260246000fd5b6000600019821415612cdd57612cdd612cb3565b5060010190565b634e487b7160e01b600052603260045260246000fd5b600082821015612d0c57612d0c612cb3565b500390565b6000816000190483118215151615612d2b57612d2b612cb3565b500290565b60008351612d428184602088016128d6565b835190830190612d568183602088016128d6565b01949350505050565b600060208284031215612d7157600080fd5b815161172a81612b6c565b60008219821115612d8f57612d8f612cb3565b500190565b634e487b7160e01b600052601260045260246000fd5b600082612db957612db9612d94565b500490565b600082612dcd57612dcd612d94565b500690565b600060ff821660ff84168060ff03821115612def57612def612cb3565b019392505050565b60008351612e098184602088016128d6565b9190910191825250602001919050565b60006001600160a01b03808716835280861660208401525083604083015260806060830152612e4b6080830184612902565b9695505050505050565b600060208284031215612e6757600080fd5b815161172a8161286c565b634e487b7160e01b600052603160045260246000fdfea2646970667358221220f2a8da8695bbb373ef1b68106a63887e7db68973591bdd3d0c14512c48b230fa64736f6c63430008090033",
  "devdoc": {
    "kind": "dev",
    "methods": {
      "approve(address,uint256)": {
        "details": "See {IERC721-approve}."
      },
      "balanceOf(address)": {
        "details": "See {IERC721-balanceOf}."
      },
      "getApproved(uint256)": {
        "details": "See {IERC721-getApproved}."
      },
      "isApprovedForAll(address,address)": {
        "details": "See {IERC721-isApprovedForAll}."
      },
      "name()": {
        "details": "See {IERC721Metadata-name}."
      },
      "owner()": {
        "details": "Returns the address of the current owner."
      },
      "ownerOf(uint256)": {
        "details": "See {IERC721-ownerOf}."
      },
      "renounceOwnership()": {
        "details": "Leaves the contract without owner. It will not be possible to call `onlyOwner` functions anymore. Can only be called by the current owner. NOTE: Renouncing ownership will leave the contract without an owner, thereby removing any functionality that is only available to the owner."
      },
      "safeTransferFrom(address,address,uint256)": {
        "details": "See {IERC721-safeTransferFrom}."
      },
      "safeTransferFrom(address,address,uint256,bytes)": {
        "details": "See {IERC721-safeTransferFrom}."
      },
      "setApprovalForAll(address,bool)": {
        "details": "See {IERC721-setApprovalForAll}."
      },
      "supportsInterface(bytes4)": {
        "details": "See {IERC165-supportsInterface}."
      },
      "symbol()": {
        "details": "See {IERC721Metadata-symbol}."
      },
      "tokenByIndex(uint256)": {
        "details": "See {IERC721Enumerable-tokenByIndex}."
      },
      "tokenOfOwnerByIndex(address,uint256)": {
        "details": "See {IERC721Enumerable-tokenOfOwnerByIndex}."
      },
      "tokenURI(uint256)": {
        "details": "See {IERC721Metadata-tokenURI}."
      },
      "totalSupply()": {
        "details": "See {IERC721Enumerable-totalSupply}."
      },
      "transferFrom(address,address,uint256)": {
        "details": "See {IERC721-transferFrom}."
      },
      "transferOwnership(address)": {
        "details": "Transfers ownership of the contract to a new account (`newOwner`). Can only be called by the current owner."
      }
    },
    "version": 1
  },
  "userdoc": {
    "kind": "user",
    "methods": {},
    "version": 1
  },
  "storageLayout": {
    "storage": [
      {
        "astId": 7,
        "contract": "src/core/GBC.sol:GBC",
        "label": "_owner",
        "offset": 0,
        "slot": "0",
        "type": "t_address"
      },
      {
        "astId": 235,
        "contract": "src/core/GBC.sol:GBC",
        "label": "_name",
        "offset": 0,
        "slot": "1",
        "type": "t_string_storage"
      },
      {
        "astId": 237,
        "contract": "src/core/GBC.sol:GBC",
        "label": "_symbol",
        "offset": 0,
        "slot": "2",
        "type": "t_string_storage"
      },
      {
        "astId": 241,
        "contract": "src/core/GBC.sol:GBC",
        "label": "_owners",
        "offset": 0,
        "slot": "3",
        "type": "t_mapping(t_uint256,t_address)"
      },
      {
        "astId": 245,
        "contract": "src/core/GBC.sol:GBC",
        "label": "_balances",
        "offset": 0,
        "slot": "4",
        "type": "t_mapping(t_address,t_uint256)"
      },
      {
        "astId": 249,
        "contract": "src/core/GBC.sol:GBC",
        "label": "_tokenApprovals",
        "offset": 0,
        "slot": "5",
        "type": "t_mapping(t_uint256,t_address)"
      },
      {
        "astId": 255,
        "contract": "src/core/GBC.sol:GBC",
        "label": "_operatorApprovals",
        "offset": 0,
        "slot": "6",
        "type": "t_mapping(t_address,t_mapping(t_address,t_bool))"
      },
      {
        "astId": 1225,
        "contract": "src/core/GBC.sol:GBC",
        "label": "_ownedTokens",
        "offset": 0,
        "slot": "7",
        "type": "t_mapping(t_address,t_mapping(t_uint256,t_uint256))"
      },
      {
        "astId": 1229,
        "contract": "src/core/GBC.sol:GBC",
        "label": "_ownedTokensIndex",
        "offset": 0,
        "slot": "8",
        "type": "t_mapping(t_uint256,t_uint256)"
      },
      {
        "astId": 1232,
        "contract": "src/core/GBC.sol:GBC",
        "label": "_allTokens",
        "offset": 0,
        "slot": "9",
        "type": "t_array(t_uint256)dyn_storage"
      },
      {
        "astId": 1236,
        "contract": "src/core/GBC.sol:GBC",
        "label": "_allTokensIndex",
        "offset": 0,
        "slot": "10",
        "type": "t_mapping(t_uint256,t_uint256)"
      },
      {
        "astId": 5323,
        "contract": "src/core/GBC.sol:GBC",
        "label": "_tokenIdTracker",
        "offset": 0,
        "slot": "11",
        "type": "t_struct(Counter)2127_storage"
      },
      {
        "astId": 5325,
        "contract": "src/core/GBC.sol:GBC",
        "label": "_baseTokenURI",
        "offset": 0,
        "slot": "12",
        "type": "t_string_storage"
      },
      {
        "astId": 5328,
        "contract": "src/core/GBC.sol:GBC",
        "label": "max",
        "offset": 0,
        "slot": "13",
        "type": "t_uint256"
      },
      {
        "astId": 5331,
        "contract": "src/core/GBC.sol:GBC",
        "label": "maxMintPerTx",
        "offset": 0,
        "slot": "14",
        "type": "t_uint256"
      },
      {
        "astId": 5334,
        "contract": "src/core/GBC.sol:GBC",
        "label": "publicSaleStarted",
        "offset": 0,
        "slot": "15",
        "type": "t_bool"
      },
      {
        "astId": 5337,
        "contract": "src/core/GBC.sol:GBC",
        "label": "wlMintStarted",
        "offset": 1,
        "slot": "15",
        "type": "t_bool"
      },
      {
        "astId": 5340,
        "contract": "src/core/GBC.sol:GBC",
        "label": "tokenURIFrozen",
        "offset": 2,
        "slot": "15",
        "type": "t_bool"
      },
      {
        "astId": 5343,
        "contract": "src/core/GBC.sol:GBC",
        "label": "cost",
        "offset": 0,
        "slot": "16",
        "type": "t_uint256"
      },
      {
        "astId": 5345,
        "contract": "src/core/GBC.sol:GBC",
        "label": "wlSigner",
        "offset": 0,
        "slot": "17",
        "type": "t_address"
      },
      {
        "astId": 5349,
        "contract": "src/core/GBC.sol:GBC",
        "label": "blacklist",
        "offset": 0,
        "slot": "18",
        "type": "t_mapping(t_address,t_bool)"
      }
    ],
    "types": {
      "t_address": {
        "encoding": "inplace",
        "label": "address",
        "numberOfBytes": "20"
      },
      "t_array(t_uint256)dyn_storage": {
        "base": "t_uint256",
        "encoding": "dynamic_array",
        "label": "uint256[]",
        "numberOfBytes": "32"
      },
      "t_bool": {
        "encoding": "inplace",
        "label": "bool",
        "numberOfBytes": "1"
      },
      "t_mapping(t_address,t_bool)": {
        "encoding": "mapping",
        "key": "t_address",
        "label": "mapping(address => bool)",
        "numberOfBytes": "32",
        "value": "t_bool"
      },
      "t_mapping(t_address,t_mapping(t_address,t_bool))": {
        "encoding": "mapping",
        "key": "t_address",
        "label": "mapping(address => mapping(address => bool))",
        "numberOfBytes": "32",
        "value": "t_mapping(t_address,t_bool)"
      },
      "t_mapping(t_address,t_mapping(t_uint256,t_uint256))": {
        "encoding": "mapping",
        "key": "t_address",
        "label": "mapping(address => mapping(uint256 => uint256))",
        "numberOfBytes": "32",
        "value": "t_mapping(t_uint256,t_uint256)"
      },
      "t_mapping(t_address,t_uint256)": {
        "encoding": "mapping",
        "key": "t_address",
        "label": "mapping(address => uint256)",
        "numberOfBytes": "32",
        "value": "t_uint256"
      },
      "t_mapping(t_uint256,t_address)": {
        "encoding": "mapping",
        "key": "t_uint256",
        "label": "mapping(uint256 => address)",
        "numberOfBytes": "32",
        "value": "t_address"
      },
      "t_mapping(t_uint256,t_uint256)": {
        "encoding": "mapping",
        "key": "t_uint256",
        "label": "mapping(uint256 => uint256)",
        "numberOfBytes": "32",
        "value": "t_uint256"
      },
      "t_string_storage": {
        "encoding": "bytes",
        "label": "string",
        "numberOfBytes": "32"
      },
      "t_struct(Counter)2127_storage": {
        "encoding": "inplace",
        "label": "struct Counters.Counter",
        "members": [
          {
            "astId": 2126,
            "contract": "src/core/GBC.sol:GBC",
            "label": "_value",
            "offset": 0,
            "slot": "0",
            "type": "t_uint256"
          }
        ],
        "numberOfBytes": "32"
      },
      "t_uint256": {
        "encoding": "inplace",
        "label": "uint256",
        "numberOfBytes": "32"
      }
    }
  }
}