{
  "address": "0x4436C8fBe09e4D96a5346bf83dEDa507B301d731",
  "abi": [
    {
      "inputs": [],
      "name": "LAB",
      "outputs": [
        {
          "internalType": "contract GBCLab",
          "name": "",
          "type": "address"
        }
      ],
      "stateMutability": "view",
      "type": "function"
    },
    {
      "inputs": [],
      "name": "POLICE",
      "outputs": [
        {
          "internalType": "contract Authority",
          "name": "",
          "type": "address"
        }
      ],
      "stateMutability": "view",
      "type": "function"
    },
    {
      "inputs": [],
      "name": "TREASURY",
      "outputs": [
        {
          "internalType": "address",
          "name": "",
          "type": "address"
        }
      ],
      "stateMutability": "view",
      "type": "function"
    },
    {
      "inputs": [],
      "name": "collection",
      "outputs": [
        {
          "internalType": "contract ERC721",
          "name": "",
          "type": "address"
        }
      ],
      "stateMutability": "pure",
      "type": "function"
    },
    {
      "inputs": [],
      "name": "currency",
      "outputs": [
        {
          "internalType": "contract ERC20",
          "name": "",
          "type": "address"
        }
      ],
      "stateMutability": "pure",
      "type": "function"
    },
    {
      "inputs": [],
      "name": "end",
      "outputs": [
        {
          "internalType": "uint256",
          "name": "",
          "type": "uint256"
        }
      ],
      "stateMutability": "pure",
      "type": "function"
    },
    {
      "inputs": [
        {
          "internalType": "uint256",
          "name": "",
          "type": "uint256"
        }
      ],
      "name": "isNftUsed",
      "outputs": [
        {
          "internalType": "bool",
          "name": "",
          "type": "bool"
        }
      ],
      "stateMutability": "view",
      "type": "function"
    },
    {
      "inputs": [
        {
          "internalType": "uint256[]",
          "name": "tokens",
          "type": "uint256[]"
        }
      ],
      "name": "mint",
      "outputs": [],
      "stateMutability": "nonpayable",
      "type": "function"
    },
    {
      "inputs": [
        {
          "internalType": "address",
          "name": "to",
          "type": "address"
        },
        {
          "internalType": "uint256[]",
          "name": "tokens",
          "type": "uint256[]"
        }
      ],
      "name": "mintFor",
      "outputs": [],
      "stateMutability": "nonpayable",
      "type": "function"
    },
    {
      "inputs": [
        {
          "internalType": "address",
          "name": "",
          "type": "address"
        }
      ],
      "name": "minted",
      "outputs": [
        {
          "internalType": "uint256",
          "name": "",
          "type": "uint256"
        }
      ],
      "stateMutability": "view",
      "type": "function"
    },
    {
      "inputs": [],
      "name": "price",
      "outputs": [
        {
          "internalType": "uint256",
          "name": "",
          "type": "uint256"
        }
      ],
      "stateMutability": "pure",
      "type": "function"
    },
    {
      "inputs": [],
      "name": "start",
      "outputs": [
        {
          "internalType": "uint256",
          "name": "",
          "type": "uint256"
        }
      ],
      "stateMutability": "pure",
      "type": "function"
    },
    {
      "inputs": [],
      "name": "supply",
      "outputs": [
        {
          "internalType": "uint256",
          "name": "",
          "type": "uint256"
        }
      ],
      "stateMutability": "pure",
      "type": "function"
    },
    {
      "inputs": [],
      "name": "tokenId",
      "outputs": [
        {
          "internalType": "uint256",
          "name": "",
          "type": "uint256"
        }
      ],
      "stateMutability": "pure",
      "type": "function"
    },
    {
      "inputs": [],
      "name": "totalMinted",
      "outputs": [
        {
          "internalType": "uint256",
          "name": "",
          "type": "uint256"
        }
      ],
      "stateMutability": "view",
      "type": "function"
    },
    {
      "inputs": [],
      "name": "transaction",
      "outputs": [
        {
          "internalType": "uint256",
          "name": "",
          "type": "uint256"
        }
      ],
      "stateMutability": "pure",
      "type": "function"
    },
    {
      "inputs": [],
      "name": "wallet",
      "outputs": [
        {
          "internalType": "uint256",
          "name": "",
          "type": "uint256"
        }
      ],
      "stateMutability": "pure",
      "type": "function"
    }
  ],
  "transactionHash": "0x465b3114005180136f611396d80b275627c73559e544b89f67b74feb27be8880",
  "args": [],
  "numDeployments": 1,
  "solcInputHash": "d9b63976ce6dd21bf7032ddac5023b9f",
  "bytecode": "0x608060405234801561001057600080fd5b50610d15806100206000396000f3fe608060405234801561001057600080fd5b506004361061011b5760003560e01c80639ca95a1e116100b2578063be9a655511610081578063e5a6b10f11610066578063e5a6b10f14610245578063efbe1c1c1461024d578063f8e93ef91461025557600080fd5b8063be9a655514610235578063c99de57e1461023d57600080fd5b80639ca95a1e146101ee5780639f2b03b614610209578063a035b1fe14610224578063a2309ff81461022c57600080fd5b80632f7fcce4116100ee5780632f7fcce414610196578063521eb273146101c95780635dc3282d146101d15780637de1e536146101e657600080fd5b8063047fc9aa1461012057806317d70f7c1461013b5780631e7269c5146101435780632d2c556514610163575b600080fd5b610128610268565b6040519081526020015b60405180910390f35b610128610279565b610128610151366004610a86565b60006020819052908152604090205481565b61017e73de2dbb7f1c893cc5e2f51cbfd2a73c8a016183a081565b6040516001600160a01b039091168152602001610132565b6101b96101a4366004610aaa565b60026020526000908152604090205460ff1681565b6040519015158152602001610132565b610128610285565b6101e46101df366004610b92565b610291565b005b61017e6103bb565b61017e73575f40e8422efa696108dafd12cd8d636698241681565b61017e73f4f935f4272e6fd9c779cf0036589a63b48d77a781565b6101286103c7565b61012860015481565b6101286103d3565b6101286103df565b61017e6103eb565b6101286103f7565b6101e4610263366004610be2565b610403565b60006102746020610410565b905090565b600061027460c0610410565b60006102746040610410565b6040517fb70096130000000000000000000000000000000000000000000000000000000081523360048201523060248201526000357fffffffff0000000000000000000000000000000000000000000000000000000016604482015273575f40e8422efa696108dafd12cd8d63669824169063b70096139060640160206040518083038186803b15801561032457600080fd5b505afa158015610338573d6000803e3d6000fd5b505050506040513d601f19601f8201168201806040525081019061035c9190610c1f565b6103ad5760405162461bcd60e51b815260206004820152600c60248201527f554e415554484f52495a4544000000000000000000000000000000000000000060448201526064015b60405180910390fd5b6103b78282610432565b5050565b600061027460f46105f8565b60006102746000610410565b60006102746080610410565b60006102746060610410565b600061027460e06105f8565b600061027460a0610410565b61040d3382610432565b50565b600080610427600119368181013560f01c90030190565b929092013592915050565b8051600061043e6103bb565b905060005b83518110156105e757600084828151811061046057610460610c41565b60200260200101519050856001600160a01b0316836001600160a01b0316636352211e836040518263ffffffff1660e01b81526004016104a291815260200190565b60206040518083038186803b1580156104ba57600080fd5b505afa1580156104ce573d6000803e3d6000fd5b505050506040513d601f19601f820116820180604052508101906104f29190610c57565b6001600160a01b0316146105485760405162461bcd60e51b815260206004820152600960248201527f4e4f545f4f574e4552000000000000000000000000000000000000000000000060448201526064016103a4565b60008181526002602052604090205460ff16156105a75760405162461bcd60e51b815260206004820152600860248201527f4e46545f5553454400000000000000000000000000000000000000000000000060448201526064016103a4565b600090815260026020526040902080547fffffffffffffffffffffffffffffffffffffffffffffffffffffffffffffff0016600190811790915501610443565b506105f2848361061d565b50505050565b60008061060f600119368181013560f01c90030190565b929092013560601c92915050565b6106256103df565b8111156106745760405162461bcd60e51b815260206004820152600f60248201527f4d41585f5452414e53414354494f4e000000000000000000000000000000000060448201526064016103a4565b6000816001546106849190610c8a565b905061068e610268565b8111156106dd5760405162461bcd60e51b815260206004820152600a60248201527f4d41585f535550504c590000000000000000000000000000000000000000000060448201526064016103a4565b6001600160a01b038316600090815260208190526040812054610701908490610c8a565b905061070b610285565b81111561075a5760405162461bcd60e51b815260206004820152600a60248201527f4d41585f57414c4c45540000000000000000000000000000000000000000000060448201526064016103a4565b6107626103d3565b4210156107b15760405162461bcd60e51b815260206004820152600b60248201527f4e4f545f5354415254454400000000000000000000000000000000000000000060448201526064016103a4565b6107b96103f7565b42106108075760405162461bcd60e51b815260206004820152600860248201527f46494e495348454400000000000000000000000000000000000000000000000060448201526064016103a4565b60018290556001600160a01b038416600090815260208190526040812082905561082f6103eb565b90506001600160a01b0381166108735761086e73de2dbb7f1c893cc5e2f51cbfd2a73c8a016183a061085f6103c7565b6108699087610ca2565b610965565b6108b0565b6108b03373de2dbb7f1c893cc5e2f51cbfd2a73c8a016183a06108946103c7565b61089e9088610ca2565b6001600160a01b0385169291906109c5565b73f4f935f4272e6fd9c779cf0036589a63b48d77a763731133e9866108d3610279565b6040517fffffffff0000000000000000000000000000000000000000000000000000000060e085901b1681526001600160a01b039092166004830152602482015260448101879052608060648201526000608482015260a401600060405180830381600087803b15801561094657600080fd5b505af115801561095a573d6000803e3d6000fd5b505050505050505050565b600080600080600085875af19050806109c05760405162461bcd60e51b815260206004820152601360248201527f4554485f5452414e534645525f4641494c45440000000000000000000000000060448201526064016103a4565b505050565b60006040517f23b872dd0000000000000000000000000000000000000000000000000000000081528460048201528360248201528260448201526020600060648360008a5af13d15601f3d1160016000511416171691505080610a6a5760405162461bcd60e51b815260206004820152601460248201527f5452414e534645525f46524f4d5f4641494c454400000000000000000000000060448201526064016103a4565b5050505050565b6001600160a01b038116811461040d57600080fd5b600060208284031215610a9857600080fd5b8135610aa381610a71565b9392505050565b600060208284031215610abc57600080fd5b5035919050565b634e487b7160e01b600052604160045260246000fd5b600082601f830112610aea57600080fd5b8135602067ffffffffffffffff80831115610b0757610b07610ac3565b8260051b6040517fffffffffffffffffffffffffffffffffffffffffffffffffffffffffffffffe0603f83011681018181108482111715610b4a57610b4a610ac3565b604052938452858101830193838101925087851115610b6857600080fd5b83870191505b84821015610b8757813583529183019190830190610b6e565b979650505050505050565b60008060408385031215610ba557600080fd5b8235610bb081610a71565b9150602083013567ffffffffffffffff811115610bcc57600080fd5b610bd885828601610ad9565b9150509250929050565b600060208284031215610bf457600080fd5b813567ffffffffffffffff811115610c0b57600080fd5b610c1784828501610ad9565b949350505050565b600060208284031215610c3157600080fd5b81518015158114610aa357600080fd5b634e487b7160e01b600052603260045260246000fd5b600060208284031215610c6957600080fd5b8151610aa381610a71565b634e487b7160e01b600052601160045260246000fd5b60008219821115610c9d57610c9d610c74565b500190565b6000817fffffffffffffffffffffffffffffffffffffffffffffffffffffffffffffffff0483118215151615610cda57610cda610c74565b50029056fea264697066735822122002e1c1b244dceba6f97a1131f211da521c22fa9f91fe76fefcb5602bf75d259064736f6c63430008090033",
  "devdoc": {
    "kind": "dev",
    "methods": {},
    "version": 1
  },
  "userdoc": {
    "kind": "user",
    "methods": {},
    "version": 1
  },
  "storageLayout": {
    "storage": [
      {
        "astId": 7629,
        "contract": "src/lab/sales/implementations/Holder.sol:HolderSale",
        "label": "minted",
        "offset": 0,
        "slot": "0",
        "type": "t_mapping(t_address,t_uint256)"
      },
      {
        "astId": 7631,
        "contract": "src/lab/sales/implementations/Holder.sol:HolderSale",
        "label": "totalMinted",
        "offset": 0,
        "slot": "1",
        "type": "t_uint256"
      },
      {
        "astId": 7815,
        "contract": "src/lab/sales/implementations/Holder.sol:HolderSale",
        "label": "isNftUsed",
        "offset": 0,
        "slot": "2",
        "type": "t_mapping(t_uint256,t_bool)"
      }
    ],
    "types": {
      "t_address": {
        "encoding": "inplace",
        "label": "address",
        "numberOfBytes": "20"
      },
      "t_bool": {
        "encoding": "inplace",
        "label": "bool",
        "numberOfBytes": "1"
      },
      "t_mapping(t_address,t_uint256)": {
        "encoding": "mapping",
        "key": "t_address",
        "label": "mapping(address => uint256)",
        "numberOfBytes": "32",
        "value": "t_uint256"
      },
      "t_mapping(t_uint256,t_bool)": {
        "encoding": "mapping",
        "key": "t_uint256",
        "label": "mapping(uint256 => bool)",
        "numberOfBytes": "32",
        "value": "t_bool"
      },
      "t_uint256": {
        "encoding": "inplace",
        "label": "uint256",
        "numberOfBytes": "32"
      }
    }
  }
}