{
  "address": "0xDEb5A426bb8A656b572338fE55BAE1C84a847d43",
  "abi": [
    {
      "inputs": [],
      "name": "LAB",
      "outputs": [
        {
          "internalType": "contract GBCLab",
          "name": "",
          "type": "address"
        }
      ],
      "stateMutability": "view",
      "type": "function"
    },
    {
      "inputs": [],
      "name": "POLICE",
      "outputs": [
        {
          "internalType": "contract Authority",
          "name": "",
          "type": "address"
        }
      ],
      "stateMutability": "view",
      "type": "function"
    },
    {
      "inputs": [],
      "name": "TREASURY",
      "outputs": [
        {
          "internalType": "address",
          "name": "",
          "type": "address"
        }
      ],
      "stateMutability": "view",
      "type": "function"
    },
    {
      "inputs": [],
      "name": "currency",
      "outputs": [
        {
          "internalType": "contract ERC20",
          "name": "",
          "type": "address"
        }
      ],
      "stateMutability": "pure",
      "type": "function"
    },
    {
      "inputs": [],
      "name": "end",
      "outputs": [
        {
          "internalType": "uint256",
          "name": "",
          "type": "uint256"
        }
      ],
      "stateMutability": "pure",
      "type": "function"
    },
    {
      "inputs": [
        {
          "components": [
            {
              "internalType": "address",
              "name": "receiver",
              "type": "address"
            },
            {
              "internalType": "uint96",
              "name": "nonce",
              "type": "uint96"
            }
          ],
          "internalType": "struct Leaf",
          "name": "leaf",
          "type": "tuple"
        }
      ],
      "name": "hash",
      "outputs": [
        {
          "internalType": "bytes32",
          "name": "",
          "type": "bytes32"
        }
      ],
      "stateMutability": "pure",
      "type": "function"
    },
    {
      "inputs": [
        {
          "internalType": "address",
          "name": "receiver",
          "type": "address"
        },
        {
          "internalType": "uint96",
          "name": "nonce",
          "type": "uint96"
        }
      ],
      "name": "hash",
      "outputs": [
        {
          "internalType": "bytes32",
          "name": "",
          "type": "bytes32"
        }
      ],
      "stateMutability": "pure",
      "type": "function"
    },
    {
      "inputs": [
        {
          "internalType": "bytes32",
          "name": "",
          "type": "bytes32"
        }
      ],
      "name": "leafClaimed",
      "outputs": [
        {
          "internalType": "bool",
          "name": "",
          "type": "bool"
        }
      ],
      "stateMutability": "view",
      "type": "function"
    },
    {
      "inputs": [
        {
          "internalType": "uint96",
          "name": "nonce",
          "type": "uint96"
        },
        {
          "internalType": "bytes32[]",
          "name": "proof",
          "type": "bytes32[]"
        }
      ],
      "name": "mint",
      "outputs": [],
      "stateMutability": "nonpayable",
      "type": "function"
    },
    {
      "inputs": [
        {
          "components": [
            {
              "internalType": "address",
              "name": "receiver",
              "type": "address"
            },
            {
              "internalType": "uint96",
              "name": "nonce",
              "type": "uint96"
            }
          ],
          "internalType": "struct Leaf",
          "name": "leaf",
          "type": "tuple"
        },
        {
          "internalType": "bytes32[]",
          "name": "proof",
          "type": "bytes32[]"
        }
      ],
      "name": "mintFor",
      "outputs": [],
      "stateMutability": "nonpayable",
      "type": "function"
    },
    {
      "inputs": [
        {
          "internalType": "address",
          "name": "",
          "type": "address"
        }
      ],
      "name": "minted",
      "outputs": [
        {
          "internalType": "uint256",
          "name": "",
          "type": "uint256"
        }
      ],
      "stateMutability": "view",
      "type": "function"
    },
    {
      "inputs": [],
      "name": "price",
      "outputs": [
        {
          "internalType": "uint256",
          "name": "",
          "type": "uint256"
        }
      ],
      "stateMutability": "pure",
      "type": "function"
    },
    {
      "inputs": [],
      "name": "root",
      "outputs": [
        {
          "internalType": "bytes32",
          "name": "",
          "type": "bytes32"
        }
      ],
      "stateMutability": "pure",
      "type": "function"
    },
    {
      "inputs": [],
      "name": "start",
      "outputs": [
        {
          "internalType": "uint256",
          "name": "",
          "type": "uint256"
        }
      ],
      "stateMutability": "pure",
      "type": "function"
    },
    {
      "inputs": [],
      "name": "supply",
      "outputs": [
        {
          "internalType": "uint256",
          "name": "",
          "type": "uint256"
        }
      ],
      "stateMutability": "pure",
      "type": "function"
    },
    {
      "inputs": [],
      "name": "tokenId",
      "outputs": [
        {
          "internalType": "uint256",
          "name": "",
          "type": "uint256"
        }
      ],
      "stateMutability": "pure",
      "type": "function"
    },
    {
      "inputs": [],
      "name": "totalMinted",
      "outputs": [
        {
          "internalType": "uint256",
          "name": "",
          "type": "uint256"
        }
      ],
      "stateMutability": "view",
      "type": "function"
    },
    {
      "inputs": [],
      "name": "transaction",
      "outputs": [
        {
          "internalType": "uint256",
          "name": "",
          "type": "uint256"
        }
      ],
      "stateMutability": "pure",
      "type": "function"
    },
    {
      "inputs": [],
      "name": "wallet",
      "outputs": [
        {
          "internalType": "uint256",
          "name": "",
          "type": "uint256"
        }
      ],
      "stateMutability": "pure",
      "type": "function"
    }
  ],
  "transactionHash": "0xae0a5c79a2987bce4c9af481d8084d1a8229d7481fbac227eb067d0423155bda",
  "args": [],
  "numDeployments": 1,
  "solcInputHash": "d9b63976ce6dd21bf7032ddac5023b9f",
  "bytecode": "0x608060405234801561001057600080fd5b50610f46806100206000396000f3fe608060405234801561001057600080fd5b50600436106101515760003560e01c80639ca95a1e116100cd578063c99de57e11610081578063ebf0c71711610066578063ebf0c7171461030e578063efbe1c1c14610316578063fc90c01b1461031e57600080fd5b8063c99de57e146102fe578063e5a6b10f1461030657600080fd5b8063a035b1fe116100b2578063a035b1fe146102e5578063a2309ff8146102ed578063be9a6555146102f657600080fd5b80639ca95a1e146102af5780639f2b03b6146102ca57600080fd5b80632d2c556511610124578063449bc2a311610109578063449bc2a314610221578063521eb2731461023457806352b9b3321461023c57600080fd5b80632d2c5565146101cc57806338c532be1461020c57600080fd5b806301fb685714610156578063047fc9aa1461018e57806317d70f7c146101a45780631e7269c5146101ac575b600080fd5b610179610164366004610bf9565b60026020526000908152604090205460ff1681565b60405190151581526020015b60405180910390f35b610196610331565b604051908152602001610185565b610196610342565b6101966101ba366004610c36565b60006020819052908152604090205481565b6101e773de2dbb7f1c893cc5e2f51cbfd2a73c8a016183a081565b60405173ffffffffffffffffffffffffffffffffffffffff9091168152602001610185565b61021f61021a366004610d9a565b61034e565b005b61019661022f366004610de9565b610478565b6101966104f4565b61019661024a366004610e05565b6040805160609390931b6bffffffffffffffffffffffff191660208085019190915260a09290921b7fffffffffffffffffffffffff00000000000000000000000000000000000000001660348401528051808403830181529281019052815191012090565b6101e773575f40e8422efa696108dafd12cd8d636698241681565b6101e773f4f935f4272e6fd9c779cf0036589a63b48d77a781565b610196610500565b61019660015481565b61019661050c565b610196610518565b6101e7610524565b610196610530565b610196610541565b61021f61032c366004610e38565b61054d565b600061033d6020610578565b905090565b600061033d60c0610578565b6040517fb70096130000000000000000000000000000000000000000000000000000000081523360048201523060248201526000357fffffffff0000000000000000000000000000000000000000000000000000000016604482015273575f40e8422efa696108dafd12cd8d63669824169063b70096139060640160206040518083038186803b1580156103e157600080fd5b505afa1580156103f5573d6000803e3d6000fd5b505050506040513d601f19601f820116820180604052508101906104199190610e70565b61046a5760405162461bcd60e51b815260206004820152600c60248201527f554e415554484f52495a4544000000000000000000000000000000000000000060448201526064015b60405180910390fd5b610474828261059a565b5050565b6000816000015182602001516040516020016104d792919060609290921b6bffffffffffffffffffffffff1916825260a01b7fffffffffffffffffffffffff000000000000000000000000000000000000000016601482015260200190565b604051602081830303815290604052805190602001209050919050565b600061033d6040610578565b600061033d6000610578565b600061033d6080610578565b600061033d6060610578565b600061033d60e06106af565b600061053c60f4610578565b919050565b600061033d60a0610578565b604080518082019091523381526bffffffffffffffffffffffff83166020820152610474908261059a565b60008061058f600119368181013560f01c90030190565b929092013592915050565b60006105a583610478565b60008181526002602052604090205490915060ff16156106075760405162461bcd60e51b815260206004820152600960248201527f4c4541465f5553454400000000000000000000000000000000000000000000006044820152606401610461565b61061982610613610530565b836106d4565b6106655760405162461bcd60e51b815260206004820152600c60248201527f494e56414c49445f4c45414600000000000000000000000000000000000000006044820152606401610461565b600081815260026020526040902080547fffffffffffffffffffffffffffffffffffffffffffffffffffffffffffffff0016600190811790915583516106aa916106ea565b505050565b6000806106c6600119368181013560f01c90030190565b929092013560601c92915050565b6000826106e18584610a73565b14949350505050565b6106f2610518565b8111156107415760405162461bcd60e51b815260206004820152600f60248201527f4d41585f5452414e53414354494f4e00000000000000000000000000000000006044820152606401610461565b6000816001546107519190610ea8565b905061075b610331565b8111156107aa5760405162461bcd60e51b815260206004820152600a60248201527f4d41585f535550504c59000000000000000000000000000000000000000000006044820152606401610461565b73ffffffffffffffffffffffffffffffffffffffff83166000908152602081905260408120546107db908490610ea8565b90506107e56104f4565b8111156108345760405162461bcd60e51b815260206004820152600a60248201527f4d41585f57414c4c4554000000000000000000000000000000000000000000006044820152606401610461565b61083c61050c565b42101561088b5760405162461bcd60e51b815260206004820152600b60248201527f4e4f545f535441525445440000000000000000000000000000000000000000006044820152606401610461565b610893610541565b42106108e15760405162461bcd60e51b815260206004820152600860248201527f46494e49534845440000000000000000000000000000000000000000000000006044820152606401610461565b600182905573ffffffffffffffffffffffffffffffffffffffff84166000908152602081905260408120829055610916610524565b905073ffffffffffffffffffffffffffffffffffffffff81166109675761096273de2dbb7f1c893cc5e2f51cbfd2a73c8a016183a0610953610500565b61095d9087610ec0565b610ac0565b6109b1565b6109b13373de2dbb7f1c893cc5e2f51cbfd2a73c8a016183a0610988610500565b6109929088610ec0565b73ffffffffffffffffffffffffffffffffffffffff8516929190610b1b565b73f4f935f4272e6fd9c779cf0036589a63b48d77a763731133e9866109d4610342565b6040517fffffffff0000000000000000000000000000000000000000000000000000000060e085901b16815273ffffffffffffffffffffffffffffffffffffffff9092166004830152602482015260448101879052608060648201526000608482015260a401600060405180830381600087803b158015610a5457600080fd5b505af1158015610a68573d6000803e3d6000fd5b505050505050505050565b600081815b8451811015610ab857610aa482868381518110610a9757610a97610edf565b6020026020010151610bc7565b915080610ab081610ef5565b915050610a78565b509392505050565b600080600080600085875af19050806106aa5760405162461bcd60e51b815260206004820152601360248201527f4554485f5452414e534645525f4641494c4544000000000000000000000000006044820152606401610461565b60006040517f23b872dd0000000000000000000000000000000000000000000000000000000081528460048201528360248201528260448201526020600060648360008a5af13d15601f3d1160016000511416171691505080610bc05760405162461bcd60e51b815260206004820152601460248201527f5452414e534645525f46524f4d5f4641494c45440000000000000000000000006044820152606401610461565b5050505050565b6000818310610be3576000828152602084905260409020610bf2565b60008381526020839052604090205b9392505050565b600060208284031215610c0b57600080fd5b5035919050565b803573ffffffffffffffffffffffffffffffffffffffff8116811461053c57600080fd5b600060208284031215610c4857600080fd5b610bf282610c12565b634e487b7160e01b600052604160045260246000fd5b80356bffffffffffffffffffffffff8116811461053c57600080fd5b600060408284031215610c9557600080fd5b6040516040810181811067ffffffffffffffff82111715610cb857610cb8610c51565b604052905080610cc783610c12565b8152610cd560208401610c67565b60208201525092915050565b600082601f830112610cf257600080fd5b8135602067ffffffffffffffff80831115610d0f57610d0f610c51565b8260051b6040517fffffffffffffffffffffffffffffffffffffffffffffffffffffffffffffffe0603f83011681018181108482111715610d5257610d52610c51565b604052938452858101830193838101925087851115610d7057600080fd5b83870191505b84821015610d8f57813583529183019190830190610d76565b979650505050505050565b60008060608385031215610dad57600080fd5b610db78484610c83565b9150604083013567ffffffffffffffff811115610dd357600080fd5b610ddf85828601610ce1565b9150509250929050565b600060408284031215610dfb57600080fd5b610bf28383610c83565b60008060408385031215610e1857600080fd5b610e2183610c12565b9150610e2f60208401610c67565b90509250929050565b60008060408385031215610e4b57600080fd5b610e5483610c67565b9150602083013567ffffffffffffffff811115610dd357600080fd5b600060208284031215610e8257600080fd5b81518015158114610bf257600080fd5b634e487b7160e01b600052601160045260246000fd5b60008219821115610ebb57610ebb610e92565b500190565b6000816000190483118215151615610eda57610eda610e92565b500290565b634e487b7160e01b600052603260045260246000fd5b6000600019821415610f0957610f09610e92565b506001019056fea26469706673582212206a65544ee9c132dce10a3dccfc95827d06a405431ae0900820aff29fb511574464736f6c63430008090033",
  "devdoc": {
    "kind": "dev",
    "methods": {},
    "version": 1
  },
  "userdoc": {
    "kind": "user",
    "methods": {},
    "version": 1
  },
  "storageLayout": {
    "storage": [
      {
        "astId": 7629,
        "contract": "src/lab/sales/implementations/Merkle.sol:MerkleSale",
        "label": "minted",
        "offset": 0,
        "slot": "0",
        "type": "t_mapping(t_address,t_uint256)"
      },
      {
        "astId": 7631,
        "contract": "src/lab/sales/implementations/Merkle.sol:MerkleSale",
        "label": "totalMinted",
        "offset": 0,
        "slot": "1",
        "type": "t_uint256"
      },
      {
        "astId": 7944,
        "contract": "src/lab/sales/implementations/Merkle.sol:MerkleSale",
        "label": "leafClaimed",
        "offset": 0,
        "slot": "2",
        "type": "t_mapping(t_bytes32,t_bool)"
      }
    ],
    "types": {
      "t_address": {
        "encoding": "inplace",
        "label": "address",
        "numberOfBytes": "20"
      },
      "t_bool": {
        "encoding": "inplace",
        "label": "bool",
        "numberOfBytes": "1"
      },
      "t_bytes32": {
        "encoding": "inplace",
        "label": "bytes32",
        "numberOfBytes": "32"
      },
      "t_mapping(t_address,t_uint256)": {
        "encoding": "mapping",
        "key": "t_address",
        "label": "mapping(address => uint256)",
        "numberOfBytes": "32",
        "value": "t_uint256"
      },
      "t_mapping(t_bytes32,t_bool)": {
        "encoding": "mapping",
        "key": "t_bytes32",
        "label": "mapping(bytes32 => bool)",
        "numberOfBytes": "32",
        "value": "t_bool"
      },
      "t_uint256": {
        "encoding": "inplace",
        "label": "uint256",
        "numberOfBytes": "32"
      }
    }
  }
}