{
  "address": "0x265B3188579AaC5c4eCc66c1bf2bB1D38937C556",
  "abi": [
    {
      "inputs": [],
      "name": "CreateFail",
      "type": "error"
    },
    {
      "anonymous": false,
      "inputs": [
        {
          "indexed": true,
          "internalType": "address",
          "name": "user",
          "type": "address"
        },
        {
          "indexed": true,
          "internalType": "contract Authority",
          "name": "newAuthority",
          "type": "address"
        }
      ],
      "name": "AuthorityUpdated",
      "type": "event"
    },
    {
      "anonymous": false,
      "inputs": [
        {
          "indexed": true,
          "internalType": "address",
          "name": "implementation",
          "type": "address"
        },
        {
          "indexed": true,
          "internalType": "address",
          "name": "clone",
          "type": "address"
        }
      ],
      "name": "NewSale",
      "type": "event"
    },
    {
      "anonymous": false,
      "inputs": [
        {
          "indexed": true,
          "internalType": "address",
          "name": "user",
          "type": "address"
        },
        {
          "indexed": true,
          "internalType": "address",
          "name": "newOwner",
          "type": "address"
        }
      ],
      "name": "OwnerUpdated",
      "type": "event"
    },
    {
      "inputs": [],
      "name": "authority",
      "outputs": [
        {
          "internalType": "contract Authority",
          "name": "",
          "type": "address"
        }
      ],
      "stateMutability": "view",
      "type": "function"
    },
    {
      "inputs": [
        {
          "internalType": "address",
          "name": "implementation",
          "type": "address"
        },
        {
          "internalType": "bytes",
          "name": "data",
          "type": "bytes"
        }
      ],
      "name": "deploy",
      "outputs": [
        {
          "internalType": "address",
          "name": "clone",
          "type": "address"
        }
      ],
      "stateMutability": "nonpayable",
      "type": "function"
    },
    {
      "inputs": [],
      "name": "owner",
      "outputs": [
        {
          "internalType": "address",
          "name": "",
          "type": "address"
        }
      ],
      "stateMutability": "view",
      "type": "function"
    },
    {
      "inputs": [
        {
          "internalType": "contract Authority",
          "name": "newAuthority",
          "type": "address"
        }
      ],
      "name": "setAuthority",
      "outputs": [],
      "stateMutability": "nonpayable",
      "type": "function"
    },
    {
      "inputs": [
        {
          "internalType": "address",
          "name": "newOwner",
          "type": "address"
        }
      ],
      "name": "setOwner",
      "outputs": [],
      "stateMutability": "nonpayable",
      "type": "function"
    }
  ],
  "transactionHash": "0x04ad1c90057641747d9a03c71e0fbb095af486bb1a23fe4188f45f0a56c31343",
  "args": [],
  "numDeployments": 1,
  "solcInputHash": "d9b63976ce6dd21bf7032ddac5023b9f",
  "bytecode": "0x608060405234801561001057600080fd5b5060008054336001600160a01b03199182168117835560018054909216909155604051909190829081907f8292fce18fa69edf4db7b94ea2e58241df0ae57f97e0a6c9b29067028bf92d76908490a36040516001600160a01b0382169033907fa3396fd7f6e0a21b50e5089d2da70d5ac0a3bbbd1f617a93f134b7638998019890600090a35050610876806100a66000396000f3fe608060405234801561001057600080fd5b50600436106100675760003560e01c80638da5cb5b116100505780638da5cb5b14610094578063bf7e214f146100c3578063e97fac05146100d657600080fd5b806313af40351461006c5780637a9e5e4b14610081575b600080fd5b61007f61007a366004610707565b6100e9565b005b61007f61008f366004610707565b6101e5565b6000546100a7906001600160a01b031681565b6040516001600160a01b03909116815260200160405180910390f35b6001546100a7906001600160a01b031681565b6100a76100e436600461075a565b61032a565b610117336000357fffffffff000000000000000000000000000000000000000000000000000000001661041b565b610182576040517f08c379a000000000000000000000000000000000000000000000000000000000815260206004820152600c60248201527f554e415554484f52495a4544000000000000000000000000000000000000000060448201526064015b60405180910390fd5b600080547fffffffffffffffffffffffff0000000000000000000000000000000000000000166001600160a01b0383169081178255604051909133917f8292fce18fa69edf4db7b94ea2e58241df0ae57f97e0a6c9b29067028bf92d769190a350565b6000546001600160a01b03163314806102bd57506001546040517fb70096130000000000000000000000000000000000000000000000000000000081523360048201523060248201526000357fffffffff000000000000000000000000000000000000000000000000000000001660448201526001600160a01b039091169063b70096139060640160206040518083038186803b15801561028557600080fd5b505afa158015610299573d6000803e3d6000fd5b505050506040513d601f19601f820116820180604052508101906102bd919061081e565b6102c657600080fd5b600180547fffffffffffffffffffffffff0000000000000000000000000000000000000000166001600160a01b03831690811790915560405133907fa3396fd7f6e0a21b50e5089d2da70d5ac0a3bbbd1f617a93f134b7638998019890600090a350565b600061035a336000357fffffffff000000000000000000000000000000000000000000000000000000001661041b565b6103c0576040517f08c379a000000000000000000000000000000000000000000000000000000000815260206004820152600c60248201527f554e415554484f52495a454400000000000000000000000000000000000000006044820152606401610179565b6103d36001600160a01b03841683610514565b9050806001600160a01b0316836001600160a01b03167f83f35c3d500677e8300bf0bbf471882d821904d2b410c5df88c5ca5d3ec0907a60405160405180910390a392915050565b6001546000906001600160a01b031680158015906104f457506040517fb70096130000000000000000000000000000000000000000000000000000000081526001600160a01b0385811660048301523060248301527fffffffff000000000000000000000000000000000000000000000000000000008516604483015282169063b70096139060640160206040518083038186803b1580156104bc57600080fd5b505afa1580156104d0573d6000803e3d6000fd5b505050506040513d601f19601f820116820180604052508101906104f4919061081e565b8061050c57506000546001600160a01b038581169116145b949350505050565b80516040517f3d610000000000000000000000000000000000000000000000000000000000008152603a820160f081811b6002848101919091527f80600b3d3981f30000000000000000000000000000000000000000000000000060048501527f363d3d3761000000000000000000000000000000000000000000000000000000600b8501528401901b601083018190527f603836393d3d3d366100000000000000000000000000000000000000000000006012840152601b8301527f013d730000000000000000000000000000000000000000000000000000000000601d830152606085901b6020808401919091527f5af43d82803e903d91603657fd5bf3000000000000000000000000000000000060348401526000939260458401929186019084604382015b6020821061065c5783518152602093840193601f19909201910161063d565b83517fffffffffffffffffffffffffffffffffffffffffffffffffffffffffffffffff60208490036101000a0119908116825260f088901b91830191825286846000f098506001600160a01b0389166106e1576040517febfef18800000000000000000000000000000000000000000000000000000000815260040160405180910390fd5b505050505050505092915050565b6001600160a01b038116811461070457600080fd5b50565b60006020828403121561071957600080fd5b8135610724816106ef565b9392505050565b7f4e487b7100000000000000000000000000000000000000000000000000000000600052604160045260246000fd5b6000806040838503121561076d57600080fd5b8235610778816106ef565b9150602083013567ffffffffffffffff8082111561079557600080fd5b818501915085601f8301126107a957600080fd5b8135818111156107bb576107bb61072b565b604051601f8201601f19908116603f011681019083821181831017156107e3576107e361072b565b816040528281528860208487010111156107fc57600080fd5b8260208601602083013760006020848301015280955050505050509250929050565b60006020828403121561083057600080fd5b8151801515811461072457600080fdfea264697066735822122001b5005b1b908b409f4f75408027f649129b53feb4853c33b3a8eb6ccf6ec4dc64736f6c63430008090033",
  "devdoc": {
    "kind": "dev",
    "methods": {},
    "version": 1
  },
  "userdoc": {
    "kind": "user",
    "methods": {},
    "version": 1
  },
  "storageLayout": {
    "storage": [
      {
        "astId": 2977,
        "contract": "src/lab/sales/Factory.sol:SaleFactory",
        "label": "owner",
        "offset": 0,
        "slot": "0",
        "type": "t_address"
      },
      {
        "astId": 2980,
        "contract": "src/lab/sales/Factory.sol:SaleFactory",
        "label": "authority",
        "offset": 0,
        "slot": "1",
        "type": "t_contract(Authority)3131"
      }
    ],
    "types": {
      "t_address": {
        "encoding": "inplace",
        "label": "address",
        "numberOfBytes": "20"
      },
      "t_contract(Authority)3131": {
        "encoding": "inplace",
        "label": "contract Authority",
        "numberOfBytes": "20"
      }
    }
  }
}